{
  "_format": "hh-sol-artifact-1",
  "contractName": "Saing",
  "sourceName": "contracts/Saing.sol",
  "abi": [
    {
      "inputs": [
        {
          "internalType": "string",
          "name": "_name",
          "type": "string"
        },
        {
          "internalType": "string",
          "name": "_short",
          "type": "string"
        },
        {
          "internalType": "uint256",
          "name": "_nominalVolume",
          "type": "uint256"
        },
        {
          "internalType": "uint256",
          "name": "_initTokenPrice",
          "type": "uint256"
        },
        {
          "internalType": "uint256",
          "name": "_priceChangeStep",
          "type": "uint256"
        }
      ],
      "stateMutability": "nonpayable",
      "type": "constructor"
    },
    {
      "inputs": [],
      "name": "CheckpointUnorderedInsertion",
      "type": "error"
    },
    {
      "inputs": [],
      "name": "ECDSAInvalidSignature",
      "type": "error"
    },
    {
      "inputs": [
        {
          "internalType": "uint256",
          "name": "length",
          "type": "uint256"
        }
      ],
      "name": "ECDSAInvalidSignatureLength",
      "type": "error"
    },
    {
      "inputs": [
        {
          "internalType": "bytes32",
          "name": "s",
          "type": "bytes32"
        }
      ],
      "name": "ECDSAInvalidSignatureS",
      "type": "error"
    },
    {
      "inputs": [
        {
          "internalType": "uint256",
          "name": "increasedSupply",
          "type": "uint256"
        },
        {
          "internalType": "uint256",
          "name": "cap",
          "type": "uint256"
        }
      ],
      "name": "ERC20ExceededSafeSupply",
      "type": "error"
    },
    {
      "inputs": [
        {
          "internalType": "address",
          "name": "spender",
          "type": "address"
        },
        {
          "internalType": "uint256",
          "name": "allowance",
          "type": "uint256"
        },
        {
          "internalType": "uint256",
          "name": "needed",
          "type": "uint256"
        }
      ],
      "name": "ERC20InsufficientAllowance",
      "type": "error"
    },
    {
      "inputs": [
        {
          "internalType": "address",
          "name": "sender",
          "type": "address"
        },
        {
          "internalType": "uint256",
          "name": "balance",
          "type": "uint256"
        },
        {
          "internalType": "uint256",
          "name": "needed",
          "type": "uint256"
        }
      ],
      "name": "ERC20InsufficientBalance",
      "type": "error"
    },
    {
      "inputs": [
        {
          "internalType": "address",
          "name": "approver",
          "type": "address"
        }
      ],
      "name": "ERC20InvalidApprover",
      "type": "error"
    },
    {
      "inputs": [
        {
          "internalType": "address",
          "name": "receiver",
          "type": "address"
        }
      ],
      "name": "ERC20InvalidReceiver",
      "type": "error"
    },
    {
      "inputs": [
        {
          "internalType": "address",
          "name": "sender",
          "type": "address"
        }
      ],
      "name": "ERC20InvalidSender",
      "type": "error"
    },
    {
      "inputs": [
        {
          "internalType": "address",
          "name": "spender",
          "type": "address"
        }
      ],
      "name": "ERC20InvalidSpender",
      "type": "error"
    },
    {
      "inputs": [
        {
          "internalType": "uint256",
          "name": "deadline",
          "type": "uint256"
        }
      ],
      "name": "ERC2612ExpiredSignature",
      "type": "error"
    },
    {
      "inputs": [
        {
          "internalType": "address",
          "name": "signer",
          "type": "address"
        },
        {
          "internalType": "address",
          "name": "owner",
          "type": "address"
        }
      ],
      "name": "ERC2612InvalidSigner",
      "type": "error"
    },
    {
      "inputs": [
        {
          "internalType": "uint256",
          "name": "timepoint",
          "type": "uint256"
        },
        {
          "internalType": "uint48",
          "name": "clock",
          "type": "uint48"
        }
      ],
      "name": "ERC5805FutureLookup",
      "type": "error"
    },
    {
      "inputs": [],
      "name": "ERC6372InconsistentClock",
      "type": "error"
    },
    {
      "inputs": [
        {
          "internalType": "address",
          "name": "account",
          "type": "address"
        },
        {
          "internalType": "uint256",
          "name": "currentNonce",
          "type": "uint256"
        }
      ],
      "name": "InvalidAccountNonce",
      "type": "error"
    },
    {
      "inputs": [],
      "name": "InvalidShortString",
      "type": "error"
    },
    {
      "inputs": [
        {
          "internalType": "address",
          "name": "owner",
          "type": "address"
        }
      ],
      "name": "OwnableInvalidOwner",
      "type": "error"
    },
    {
      "inputs": [
        {
          "internalType": "address",
          "name": "account",
          "type": "address"
        }
      ],
      "name": "OwnableUnauthorizedAccount",
      "type": "error"
    },
    {
      "inputs": [
        {
          "internalType": "uint8",
          "name": "bits",
          "type": "uint8"
        },
        {
          "internalType": "uint256",
          "name": "value",
          "type": "uint256"
        }
      ],
      "name": "SafeCastOverflowedUintDowncast",
      "type": "error"
    },
    {
      "inputs": [
        {
          "internalType": "string",
          "name": "str",
          "type": "string"
        }
      ],
      "name": "StringTooLong",
      "type": "error"
    },
    {
      "inputs": [
        {
          "internalType": "uint256",
          "name": "expiry",
          "type": "uint256"
        }
      ],
      "name": "VotesExpiredSignature",
      "type": "error"
    },
    {
      "anonymous": false,
      "inputs": [
        {
          "indexed": true,
          "internalType": "address",
          "name": "owner",
          "type": "address"
        },
        {
          "indexed": true,
          "internalType": "address",
          "name": "spender",
          "type": "address"
        },
        {
          "indexed": false,
          "internalType": "uint256",
          "name": "value",
          "type": "uint256"
        }
      ],
      "name": "Approval",
      "type": "event"
    },
    {
      "anonymous": false,
      "inputs": [
        {
          "indexed": true,
          "internalType": "address",
          "name": "delegator",
          "type": "address"
        },
        {
          "indexed": true,
          "internalType": "address",
          "name": "fromDelegate",
          "type": "address"
        },
        {
          "indexed": true,
          "internalType": "address",
          "name": "toDelegate",
          "type": "address"
        }
      ],
      "name": "DelegateChanged",
      "type": "event"
    },
    {
      "anonymous": false,
      "inputs": [
        {
          "indexed": true,
          "internalType": "address",
          "name": "delegate",
          "type": "address"
        },
        {
          "indexed": false,
          "internalType": "uint256",
          "name": "previousVotes",
          "type": "uint256"
        },
        {
          "indexed": false,
          "internalType": "uint256",
          "name": "newVotes",
          "type": "uint256"
        }
      ],
      "name": "DelegateVotesChanged",
      "type": "event"
    },
    {
      "anonymous": false,
      "inputs": [],
      "name": "EIP712DomainChanged",
      "type": "event"
    },
    {
      "anonymous": false,
      "inputs": [
        {
          "indexed": true,
          "internalType": "address",
          "name": "previousOwner",
          "type": "address"
        },
        {
          "indexed": true,
          "internalType": "address",
          "name": "newOwner",
          "type": "address"
        }
      ],
      "name": "OwnershipTransferred",
      "type": "event"
    },
    {
      "anonymous": false,
      "inputs": [
        {
          "indexed": false,
          "internalType": "address",
          "name": "_owner",
          "type": "address"
        },
        {
          "indexed": false,
          "internalType": "uint256",
          "name": "_count",
          "type": "uint256"
        },
        {
          "indexed": false,
          "internalType": "uint256",
          "name": "_timestamp",
          "type": "uint256"
        }
      ],
      "name": "TokenAdd",
      "type": "event"
    },
    {
      "anonymous": false,
      "inputs": [
        {
          "indexed": false,
          "internalType": "address",
          "name": "_owner",
          "type": "address"
        },
        {
          "indexed": false,
          "internalType": "uint256",
          "name": "_count",
          "type": "uint256"
        },
        {
          "indexed": false,
          "internalType": "uint256",
          "name": "_timestamp",
          "type": "uint256"
        }
      ],
      "name": "TokenBurn",
      "type": "event"
    },
    {
      "anonymous": false,
      "inputs": [
        {
          "indexed": false,
          "internalType": "address",
          "name": "_owner",
          "type": "address"
        },
        {
          "indexed": false,
          "internalType": "uint256",
          "name": "_count",
          "type": "uint256"
        },
        {
          "indexed": false,
          "internalType": "uint256",
          "name": "_timestamp",
          "type": "uint256"
        }
      ],
      "name": "TokenFundContract",
      "type": "event"
    },
    {
      "anonymous": false,
      "inputs": [
        {
          "indexed": true,
          "internalType": "address",
          "name": "buyer",
          "type": "address"
        },
        {
          "indexed": false,
          "internalType": "uint256",
          "name": "count",
          "type": "uint256"
        },
        {
          "indexed": false,
          "internalType": "uint256",
          "name": "price",
          "type": "uint256"
        }
      ],
      "name": "TokenPurchased",
      "type": "event"
    },
    {
      "anonymous": false,
      "inputs": [
        {
          "indexed": true,
          "internalType": "address",
          "name": "seller",
          "type": "address"
        },
        {
          "indexed": false,
          "internalType": "uint256",
          "name": "count",
          "type": "uint256"
        },
        {
          "indexed": false,
          "internalType": "uint256",
          "name": "price",
          "type": "uint256"
        }
      ],
      "name": "TokenSold",
      "type": "event"
    },
    {
      "anonymous": false,
      "inputs": [
        {
          "indexed": false,
          "internalType": "address",
          "name": "_owner",
          "type": "address"
        },
        {
          "indexed": false,
          "internalType": "uint256",
          "name": "_count",
          "type": "uint256"
        },
        {
          "indexed": false,
          "internalType": "uint256",
          "name": "_timestamp",
          "type": "uint256"
        }
      ],
      "name": "TokenWithDraft",
      "type": "event"
    },
    {
      "anonymous": false,
      "inputs": [
        {
          "indexed": true,
          "internalType": "address",
          "name": "from",
          "type": "address"
        },
        {
          "indexed": true,
          "internalType": "address",
          "name": "to",
          "type": "address"
        },
        {
          "indexed": false,
          "internalType": "uint256",
          "name": "value",
          "type": "uint256"
        }
      ],
      "name": "Transfer",
      "type": "event"
    },
    {
      "inputs": [],
      "name": "CLOCK_MODE",
      "outputs": [
        {
          "internalType": "string",
          "name": "",
          "type": "string"
        }
      ],
      "stateMutability": "view",
      "type": "function"
    },
    {
      "inputs": [],
      "name": "DOMAIN_SEPARATOR",
      "outputs": [
        {
          "internalType": "bytes32",
          "name": "",
          "type": "bytes32"
        }
      ],
      "stateMutability": "view",
      "type": "function"
    },
    {
      "inputs": [
        {
          "internalType": "uint256",
          "name": "_count",
          "type": "uint256"
        }
      ],
      "name": "addToken",
      "outputs": [],
      "stateMutability": "nonpayable",
      "type": "function"
    },
    {
      "inputs": [
        {
          "internalType": "address",
          "name": "owner",
          "type": "address"
        },
        {
          "internalType": "address",
          "name": "spender",
          "type": "address"
        }
      ],
      "name": "allowance",
      "outputs": [
        {
          "internalType": "uint256",
          "name": "",
          "type": "uint256"
        }
      ],
      "stateMutability": "view",
      "type": "function"
    },
    {
      "inputs": [
        {
          "internalType": "address",
          "name": "spender",
          "type": "address"
        },
        {
          "internalType": "uint256",
          "name": "value",
          "type": "uint256"
        }
      ],
      "name": "approve",
      "outputs": [
        {
          "internalType": "bool",
          "name": "",
          "type": "bool"
        }
      ],
      "stateMutability": "nonpayable",
      "type": "function"
    },
    {
      "inputs": [
        {
          "internalType": "address",
          "name": "account",
          "type": "address"
        }
      ],
      "name": "balanceOf",
      "outputs": [
        {
          "internalType": "uint256",
          "name": "",
          "type": "uint256"
        }
      ],
      "stateMutability": "view",
      "type": "function"
    },
    {
      "inputs": [
        {
          "internalType": "uint256",
          "name": "_count",
          "type": "uint256"
        }
      ],
      "name": "burn",
      "outputs": [],
      "stateMutability": "nonpayable",
      "type": "function"
    },
    {
      "inputs": [
        {
          "internalType": "uint256",
          "name": "_count",
          "type": "uint256"
        }
      ],
      "name": "buyTokens",
      "outputs": [],
      "stateMutability": "payable",
      "type": "function"
    },
    {
      "inputs": [
        {
          "internalType": "address",
          "name": "account",
          "type": "address"
        },
        {
          "internalType": "uint32",
          "name": "pos",
          "type": "uint32"
        }
      ],
      "name": "checkpoints",
      "outputs": [
        {
          "components": [
            {
              "internalType": "uint48",
              "name": "_key",
              "type": "uint48"
            },
            {
              "internalType": "uint208",
              "name": "_value",
              "type": "uint208"
            }
          ],
          "internalType": "struct Checkpoints.Checkpoint208",
          "name": "",
          "type": "tuple"
        }
      ],
      "stateMutability": "view",
      "type": "function"
    },
    {
      "inputs": [],
      "name": "clock",
      "outputs": [
        {
          "internalType": "uint48",
          "name": "",
          "type": "uint48"
        }
      ],
      "stateMutability": "view",
      "type": "function"
    },
    {
      "inputs": [],
      "name": "decimals",
      "outputs": [
        {
          "internalType": "uint8",
          "name": "",
          "type": "uint8"
        }
      ],
      "stateMutability": "view",
      "type": "function"
    },
    {
      "inputs": [
        {
          "internalType": "address",
          "name": "delegatee",
          "type": "address"
        }
      ],
      "name": "delegate",
      "outputs": [],
      "stateMutability": "nonpayable",
      "type": "function"
    },
    {
      "inputs": [
        {
          "internalType": "address",
          "name": "delegatee",
          "type": "address"
        },
        {
          "internalType": "uint256",
          "name": "nonce",
          "type": "uint256"
        },
        {
          "internalType": "uint256",
          "name": "expiry",
          "type": "uint256"
        },
        {
          "internalType": "uint8",
          "name": "v",
          "type": "uint8"
        },
        {
          "internalType": "bytes32",
          "name": "r",
          "type": "bytes32"
        },
        {
          "internalType": "bytes32",
          "name": "s",
          "type": "bytes32"
        }
      ],
      "name": "delegateBySig",
      "outputs": [],
      "stateMutability": "nonpayable",
      "type": "function"
    },
    {
      "inputs": [
        {
          "internalType": "address",
          "name": "account",
          "type": "address"
        }
      ],
      "name": "delegates",
      "outputs": [
        {
          "internalType": "address",
          "name": "",
          "type": "address"
        }
      ],
      "stateMutability": "view",
      "type": "function"
    },
    {
      "inputs": [],
      "name": "eip712Domain",
      "outputs": [
        {
          "internalType": "bytes1",
          "name": "fields",
          "type": "bytes1"
        },
        {
          "internalType": "string",
          "name": "name",
          "type": "string"
        },
        {
          "internalType": "string",
          "name": "version",
          "type": "string"
        },
        {
          "internalType": "uint256",
          "name": "chainId",
          "type": "uint256"
        },
        {
          "internalType": "address",
          "name": "verifyingContract",
          "type": "address"
        },
        {
          "internalType": "bytes32",
          "name": "salt",
          "type": "bytes32"
        },
        {
          "internalType": "uint256[]",
          "name": "extensions",
          "type": "uint256[]"
        }
      ],
      "stateMutability": "view",
      "type": "function"
    },
    {
      "inputs": [],
      "name": "fundContract",
      "outputs": [],
      "stateMutability": "payable",
      "type": "function"
    },
    {
      "inputs": [],
      "name": "getBalance",
      "outputs": [
        {
          "internalType": "uint256",
          "name": "",
          "type": "uint256"
        }
      ],
      "stateMutability": "view",
      "type": "function"
    },
    {
      "inputs": [
        {
          "internalType": "uint256",
          "name": "timepoint",
          "type": "uint256"
        }
      ],
      "name": "getPastTotalSupply",
      "outputs": [
        {
          "internalType": "uint256",
          "name": "",
          "type": "uint256"
        }
      ],
      "stateMutability": "view",
      "type": "function"
    },
    {
      "inputs": [
        {
          "internalType": "address",
          "name": "account",
          "type": "address"
        },
        {
          "internalType": "uint256",
          "name": "timepoint",
          "type": "uint256"
        }
      ],
      "name": "getPastVotes",
      "outputs": [
        {
          "internalType": "uint256",
          "name": "",
          "type": "uint256"
        }
      ],
      "stateMutability": "view",
      "type": "function"
    },
    {
      "inputs": [],
      "name": "getTokenPrice",
      "outputs": [
        {
          "internalType": "uint256",
          "name": "",
          "type": "uint256"
        }
      ],
      "stateMutability": "view",
      "type": "function"
    },
    {
      "inputs": [
        {
          "internalType": "address",
          "name": "account",
          "type": "address"
        }
      ],
      "name": "getVotes",
      "outputs": [
        {
          "internalType": "uint256",
          "name": "",
          "type": "uint256"
        }
      ],
      "stateMutability": "view",
      "type": "function"
    },
    {
      "inputs": [],
      "name": "minTokenPrice",
      "outputs": [
        {
          "internalType": "uint256",
          "name": "",
          "type": "uint256"
        }
      ],
      "stateMutability": "view",
      "type": "function"
    },
    {
      "inputs": [],
      "name": "name",
      "outputs": [
        {
          "internalType": "string",
          "name": "",
          "type": "string"
        }
      ],
      "stateMutability": "view",
      "type": "function"
    },
    {
      "inputs": [],
      "name": "nominalVolume",
      "outputs": [
        {
          "internalType": "uint256",
          "name": "",
          "type": "uint256"
        }
      ],
      "stateMutability": "view",
      "type": "function"
    },
    {
      "inputs": [
        {
          "internalType": "address",
          "name": "owner",
          "type": "address"
        }
      ],
      "name": "nonces",
      "outputs": [
        {
          "internalType": "uint256",
          "name": "",
          "type": "uint256"
        }
      ],
      "stateMutability": "view",
      "type": "function"
    },
    {
      "inputs": [
        {
          "internalType": "address",
          "name": "account",
          "type": "address"
        }
      ],
      "name": "numCheckpoints",
      "outputs": [
        {
          "internalType": "uint32",
          "name": "",
          "type": "uint32"
        }
      ],
      "stateMutability": "view",
      "type": "function"
    },
    {
      "inputs": [],
      "name": "owner",
      "outputs": [
        {
          "internalType": "address",
          "name": "",
          "type": "address"
        }
      ],
      "stateMutability": "view",
      "type": "function"
    },
    {
      "inputs": [
        {
          "internalType": "address",
          "name": "owner",
          "type": "address"
        },
        {
          "internalType": "address",
          "name": "spender",
          "type": "address"
        },
        {
          "internalType": "uint256",
          "name": "value",
          "type": "uint256"
        },
        {
          "internalType": "uint256",
          "name": "deadline",
          "type": "uint256"
        },
        {
          "internalType": "uint8",
          "name": "v",
          "type": "uint8"
        },
        {
          "internalType": "bytes32",
          "name": "r",
          "type": "bytes32"
        },
        {
          "internalType": "bytes32",
          "name": "s",
          "type": "bytes32"
        }
      ],
      "name": "permit",
      "outputs": [],
      "stateMutability": "nonpayable",
      "type": "function"
    },
    {
      "inputs": [],
      "name": "priceChangeStep",
      "outputs": [
        {
          "internalType": "uint256",
          "name": "",
          "type": "uint256"
        }
      ],
      "stateMutability": "view",
      "type": "function"
    },
    {
      "inputs": [],
      "name": "renounceOwnership",
      "outputs": [],
      "stateMutability": "nonpayable",
      "type": "function"
    },
    {
      "inputs": [
        {
          "internalType": "uint256",
          "name": "_count",
          "type": "uint256"
        }
      ],
      "name": "sellTokens",
      "outputs": [],
      "stateMutability": "nonpayable",
      "type": "function"
    },
    {
      "inputs": [],
      "name": "symbol",
      "outputs": [
        {
          "internalType": "string",
          "name": "",
          "type": "string"
        }
      ],
      "stateMutability": "view",
      "type": "function"
    },
    {
      "inputs": [],
      "name": "totalSupply",
      "outputs": [
        {
          "internalType": "uint256",
          "name": "",
          "type": "uint256"
        }
      ],
      "stateMutability": "view",
      "type": "function"
    },
    {
      "inputs": [
        {
          "internalType": "address",
          "name": "to",
          "type": "address"
        },
        {
          "internalType": "uint256",
          "name": "value",
          "type": "uint256"
        }
      ],
      "name": "transfer",
      "outputs": [
        {
          "internalType": "bool",
          "name": "",
          "type": "bool"
        }
      ],
      "stateMutability": "nonpayable",
      "type": "function"
    },
    {
      "inputs": [
        {
          "internalType": "address",
          "name": "from",
          "type": "address"
        },
        {
          "internalType": "address",
          "name": "to",
          "type": "address"
        },
        {
          "internalType": "uint256",
          "name": "value",
          "type": "uint256"
        }
      ],
      "name": "transferFrom",
      "outputs": [
        {
          "internalType": "bool",
          "name": "",
          "type": "bool"
        }
      ],
      "stateMutability": "nonpayable",
      "type": "function"
    },
    {
      "inputs": [
        {
          "internalType": "address",
          "name": "newOwner",
          "type": "address"
        }
      ],
      "name": "transferOwnership",
      "outputs": [],
      "stateMutability": "nonpayable",
      "type": "function"
    },
    {
      "inputs": [],
      "name": "withdraftAll",
      "outputs": [],
      "stateMutability": "nonpayable",
      "type": "function"
    },
    {
      "inputs": [
        {
          "internalType": "uint256",
          "name": "_count",
          "type": "uint256"
        }
      ],
      "name": "withdrawPart",
      "outputs": [],
      "stateMutability": "nonpayable",
      "type": "function"
    }
  ],
  "bytecode": "0x6101606040523480156200001257600080fd5b506040516200355b3803806200355b8339810160408190526200003591620009f6565b338580604051806040016040528060018152602001603160f81b8152508888816003908162000065919062000b09565b50600462000074828262000b09565b5062000086915083905060056200018c565b61012052620000978160066200018c565b61014052815160208084019190912060e052815190820120610100524660a0526200012560e05161010051604080517f8b73c3c69bb8fe3d512ecc4cf759cc79239f7b179b0ffacaa9a75d522b39400f60208201529081019290925260608201524660808201523060a082015260009060c00160405160208183030381529060405280519060200120905090565b60805250503060c052506001600160a01b0381166200015f57604051631e4fbdf760e01b8152600060048201526024015b60405180910390fd5b6200016a81620001c5565b5062000177338462000217565b600c92909255600d55600e555062000cbe9050565b6000602083511015620001ac57620001a48362000255565b9050620001bf565b81620001b9848262000b09565b5060ff90505b92915050565b600b80546001600160a01b038381166001600160a01b0319831681179093556040519116919082907f8be0079c531659141344cd1fd0a4f28419497f9722a3daafe3b4186f6b6457e090600090a35050565b6001600160a01b038216620002435760405163ec442f0560e01b81526000600482015260240162000156565b620002516000838362000298565b5050565b600080829050601f8151111562000283578260405163305a27a960e01b815260040162000156919062000bd5565b8051620002908262000c0a565b179392505050565b620002a5838383620002aa565b505050565b620002b783838362000319565b6001600160a01b0383166200030c576000620002d260025490565b90506001600160d01b03808211156200030957604051630e58ae9360e11b8152600481018390526024810182905260440162000156565b50505b620002a58383836200044c565b6001600160a01b038316620003485780600260008282546200033c919062000c45565b90915550620003bc9050565b6001600160a01b038316600090815260208190526040902054818110156200039d5760405163391434e360e21b81526001600160a01b0385166004820152602481018290526044810183905260640162000156565b6001600160a01b03841660009081526020819052604090209082900390555b6001600160a01b038216620003da57600280548290039055620003f9565b6001600160a01b03821660009081526020819052604090208054820190555b816001600160a01b0316836001600160a01b03167fddf252ad1be2c89b69c2b068fc378daa952ba7f163c4a11628f55a4df523b3ef836040516200043f91815260200190565b60405180910390a3505050565b6001600160a01b03831662000481576200047e600a620011e4620004e460201b176200047884620004f9565b62000533565b50505b6001600160a01b038216620004b057620004ad600a620011f06200057060201b176200047884620004f9565b50505b6001600160a01b03838116600090815260086020526040808220548584168352912054620002a5929182169116836200057e565b6000620004f2828462000c5b565b9392505050565b60006001600160d01b038211156200052f576040516306dfcc6560e41b815260d060048201526024810183905260440162000156565b5090565b6000806200056362000544620006e5565b6200055a6200055388620006f6565b868860201c565b87919062000745565b915091505b935093915050565b6000620004f2828462000c85565b816001600160a01b0316836001600160a01b031614158015620005a15750600081115b15620002a5576001600160a01b0383161562000644576001600160a01b038316600090815260096020908152604082208291620005ef919062000570901b620011f0176200047886620004f9565b6001600160d01b031691506001600160d01b03169150846001600160a01b03166000805160206200353b833981519152838360405162000639929190918252602082015260400190565b60405180910390a250505b6001600160a01b03821615620002a5576001600160a01b0382166000908152600960209081526040822082916200068c9190620004e4901b620011e4176200047886620004f9565b6001600160d01b031691506001600160d01b03169150836001600160a01b03166000805160206200353b8339815191528383604051620006d6929190918252602082015260400190565b60405180910390a25050505050565b6000620006f162000755565b905090565b805460009080156200073c5762000722836200071460018462000ca8565b600091825260209091200190565b54660100000000000090046001600160d01b0316620004f2565b60009392505050565b6000806200056385858562000762565b6000620006f143620008f4565b8254600090819080156200089557600062000784876200071460018562000ca8565b60408051808201909152905465ffffffffffff80821680845266010000000000009092046001600160d01b031660208401529192509087161015620007dc57604051632520601d60e01b815260040160405180910390fd5b805165ffffffffffff80881691160362000830578462000803886200071460018662000ca8565b80546001600160d01b039290921666010000000000000265ffffffffffff90921691909117905562000884565b6040805180820190915265ffffffffffff80881682526001600160d01b0380881660208085019182528b54600181018d5560008d815291909120945191519092166601000000000000029216919091179101555b602001519250839150620005689050565b50506040805180820190915265ffffffffffff80851682526001600160d01b0380851660208085019182528854600181018a5560008a815291822095519251909316660100000000000002919093161792019190915590508162000568565b600065ffffffffffff8211156200052f576040516306dfcc6560e41b8152603060048201526024810183905260440162000156565b634e487b7160e01b600052604160045260246000fd5b60005b838110156200095c57818101518382015260200162000942565b50506000910152565b600082601f8301126200097757600080fd5b81516001600160401b038082111562000994576200099462000929565b604051601f8301601f19908116603f01168101908282118183101715620009bf57620009bf62000929565b81604052838152866020858801011115620009d957600080fd5b620009ec8460208301602089016200093f565b9695505050505050565b600080600080600060a0868803121562000a0f57600080fd5b85516001600160401b038082111562000a2757600080fd5b62000a3589838a0162000965565b9650602088015191508082111562000a4c57600080fd5b5062000a5b8882890162000965565b60408801516060890151608090990151979a919950979695509350505050565b600181811c9082168062000a9057607f821691505b60208210810362000ab157634e487b7160e01b600052602260045260246000fd5b50919050565b601f821115620002a557600081815260208120601f850160051c8101602086101562000ae05750805b601f850160051c820191505b8181101562000b015782815560010162000aec565b505050505050565b81516001600160401b0381111562000b255762000b2562000929565b62000b3d8162000b36845462000a7b565b8462000ab7565b602080601f83116001811462000b75576000841562000b5c5750858301515b600019600386901b1c1916600185901b17855562000b01565b600085815260208120601f198616915b8281101562000ba65788860151825594840194600190910190840162000b85565b508582101562000bc55787850151600019600388901b60f8161c191681555b5050505050600190811b01905550565b602081526000825180602084015262000bf68160408501602087016200093f565b601f01601f19169190910160400192915050565b8051602080830151919081101562000ab15760001960209190910360031b1b16919050565b634e487b7160e01b600052601160045260246000fd5b80820180821115620001bf57620001bf62000c2f565b6001600160d01b0381811683821601908082111562000c7e5762000c7e62000c2f565b5092915050565b6001600160d01b0382811682821603908082111562000c7e5762000c7e62000c2f565b81810381811115620001bf57620001bf62000c2f565b60805160a05160c05160e05161010051610120516101405161282262000d1960003960006116d3015260006116a60152600061141c015260006113f40152600061134f01526000611379015260006113a301526128226000f3fe6080604052600436106102255760003560e01c806370a08231116101235780639ab24eb0116100ab578063d505accf1161006f578063d505accf1461064e578063dd62ed3e1461066e578063edfc8a46146106b4578063f1127ed8146106ca578063f2fde38b1461071657600080fd5b80639ab24eb0146105d1578063a9059cbb146105f1578063b3cb57ef14610611578063bd097e2114610626578063c3cda5201461062e57600080fd5b806384b0196e116100f257806384b0196e1461052a5780638da5cb5b146105525780638e539e8c1461057057806391ddadf41461059057806395d89b41146105bc57600080fd5b806370a082311461049f578063715018a6146104d55780637daf06fd146104ea5780637ecebe001461050a57600080fd5b80633a46b1a8116101b1578063587cde1e11610175578063587cde1e146103c35780635c19a95c146104145780635dabb20e146104345780636c11bcd31461044a5780636fcfff451461046a57600080fd5b80633a46b1a81461034357806342966c68146103635780634b94f50e146103835780634bf5d7e914610398578063587bd880146103ad57600080fd5b806318160ddd116101f857806318160ddd146102ca57806323b872dd146102df578063313ce567146102ff5780633610724e1461031b5780633644e5151461032e57600080fd5b806306fdde031461022a578063095ea7b31461025557806312065fe014610285578063179d375c146102a8575b600080fd5b34801561023657600080fd5b5061023f610736565b60405161024c91906123ee565b60405180910390f35b34801561026157600080fd5b5061027561027036600461241d565b6107c8565b604051901515815260200161024c565b34801561029157600080fd5b5061029a6107e2565b60405190815260200161024c565b3480156102b457600080fd5b506102c86102c3366004612447565b6107f1565b005b3480156102d657600080fd5b5060025461029a565b3480156102eb57600080fd5b506102756102fa366004612460565b610863565b34801561030b57600080fd5b506040516012815260200161024c565b6102c8610329366004612447565b610887565b34801561033a57600080fd5b5061029a6109d6565b34801561034f57600080fd5b5061029a61035e36600461241d565b6109e5565b34801561036f57600080fd5b506102c861037e366004612447565b610a66565b34801561038f57600080fd5b50600d5461029a565b3480156103a457600080fd5b5061023f610abc565b3480156103b957600080fd5b5061029a600e5481565b3480156103cf57600080fd5b506103fc6103de36600461249c565b6001600160a01b039081166000908152600860205260409020541690565b6040516001600160a01b03909116815260200161024c565b34801561042057600080fd5b506102c861042f36600461249c565b610b34565b34801561044057600080fd5b5061029a600d5481565b34801561045657600080fd5b506102c8610465366004612447565b610b43565b34801561047657600080fd5b5061048a61048536600461249c565b610ca6565b60405163ffffffff909116815260200161024c565b3480156104ab57600080fd5b5061029a6104ba36600461249c565b6001600160a01b031660009081526020819052604090205490565b3480156104e157600080fd5b506102c8610cb1565b3480156104f657600080fd5b506102c8610505366004612447565b610cc5565b34801561051657600080fd5b5061029a61052536600461249c565b610d8b565b34801561053657600080fd5b5061053f610d96565b60405161024c97969594939291906124b7565b34801561055e57600080fd5b50600b546001600160a01b03166103fc565b34801561057c57600080fd5b5061029a61058b366004612447565b610ddc565b34801561059c57600080fd5b506105a5610e46565b60405165ffffffffffff909116815260200161024c565b3480156105c857600080fd5b5061023f610e50565b3480156105dd57600080fd5b5061029a6105ec36600461249c565b610e5f565b3480156105fd57600080fd5b5061027561060c36600461241d565b610e8f565b34801561061d57600080fd5b506102c8610e9d565b6102c8610f45565b34801561063a57600080fd5b506102c861064936600461255e565b610f8a565b34801561065a57600080fd5b506102c86106693660046125b6565b611047565b34801561067a57600080fd5b5061029a610689366004612620565b6001600160a01b03918216600090815260016020908152604080832093909416825291909152205490565b3480156106c057600080fd5b5061029a600c5481565b3480156106d657600080fd5b506106ea6106e5366004612653565b611181565b60408051825165ffffffffffff1681526020928301516001600160d01b0316928101929092520161024c565b34801561072257600080fd5b506102c861073136600461249c565b6111a6565b60606003805461074590612693565b80601f016020809104026020016040519081016040528092919081815260200182805461077190612693565b80156107be5780601f10610793576101008083540402835291602001916107be565b820191906000526020600020905b8154815290600101906020018083116107a157829003601f168201915b5050505050905090565b6000336107d68185856111fc565b60019150505b92915050565b60006107ec61120e565b504790565b6107f961120e565b61081461080e600b546001600160a01b031690565b8261123b565b7f935ac45a47bdcfde7a77273d4157012e945f8b4925ce47e0a5027e77eca8632e610847600b546001600160a01b031690565b8242604051610858939291906126cd565b60405180910390a150565b600033610871858285611271565b61087c8585856112dc565b506001949350505050565b600081610893600d5490565b61089d9190612704565b9050803410156108f45760405162461bcd60e51b815260206004820152601760248201527f496e73756666696369656e742066756e64732073656e7400000000000000000060448201526064015b60405180910390fd5b8161090a6104ba600b546001600160a01b031690565b10156109585760405162461bcd60e51b815260206004820152601b60248201527f4e6f7420656e6f75676820746f6b656e7320617661696c61626c65000000000060448201526064016108eb565b61097461096d600b546001600160a01b031690565b3384611337565b600e54600d6000828254610988919061271b565b909155503390507f3ceffd410054fdaed44f598ff5c1fb450658778e2241892da4aa646979dee617836109ba600d5490565b6040805192835260208301919091520160405180910390a25050565b60006109e0611342565b905090565b6000806109f0610e46565b90508065ffffffffffff168310610a2b57604051637669fc0f60e11b81526004810184905265ffffffffffff821660248201526044016108eb565b610a55610a378461146d565b6001600160a01b0386166000908152600960205260409020906114a4565b6001600160d01b0316949350505050565b610a6e61120e565b610a89610a83600b546001600160a01b031690565b8261155a565b7ffe9e0b0c1e3e9216717d5f66d10bc310b12c366417e150b4b1af9fb9620bca91610847600b546001600160a01b031690565b6060610ac6611590565b65ffffffffffff16610ad6610e46565b65ffffffffffff1614610afc576040516301bfc1c560e61b815260040160405180910390fd5b5060408051808201909152601d81527f6d6f64653d626c6f636b6e756d6265722666726f6d3d64656661756c74000000602082015290565b33610b3f818361159b565b5050565b33600090815260208190526040902054811115610ba25760405162461bcd60e51b815260206004820152601a60248201527f496e73756666696369656e7420746f6b656e2062616c616e636500000000000060448201526064016108eb565b600081610bae600d5490565b610bb89190612704565b905080471015610c0a5760405162461bcd60e51b815260206004820152601d60248201527f496e73756666696369656e7420636f6e74726163742062616c616e636500000060448201526064016108eb565b610c2633610c20600b546001600160a01b031690565b84611337565b600e54600d541115610c4c57600e54600d6000828254610c46919061272e565b90915550505b604051339082156108fc029083906000818181858888f19350505050158015610c79573d6000803e3d6000fd5b50337f35ea94addbc62df281ade49cc2ad9b3d9259166170cf702928b4ddc045f7256e836109ba600d5490565b60006107dc8261160d565b610cb961120e565b610cc3600061162f565b565b610ccd61120e565b80471015610d1d5760405162461bcd60e51b815260206004820152601d60248201527f496e73756666696369656e7420636f6e74726163742062616c616e636500000060448201526064016108eb565b600b546040516001600160a01b039091169082156108fc029083906000818181858888f19350505050158015610d57573d6000803e3d6000fd5b507fc62502a1c6fde494a1efaca583f01140f2293d7a07e49bc4480ff1aa8dd21af9610847600b546001600160a01b031690565b60006107dc82611681565b600060608060008060006060610daa61169f565b610db26116cc565b60408051600080825260208201909252600f60f81b9b939a50919850469750309650945092509050565b600080610de7610e46565b90508065ffffffffffff168310610e2257604051637669fc0f60e11b81526004810184905265ffffffffffff821660248201526044016108eb565b610e36610e2e8461146d565b600a906114a4565b6001600160d01b03169392505050565b60006109e0611590565b60606004805461074590612693565b6001600160a01b0381166000908152600960205260408120610e80906116f9565b6001600160d01b031692915050565b6000336107d68185856112dc565b610ea561120e565b6000610eb9600b546001600160a01b031690565b60405190915047906001600160a01b0383169082156108fc029083906000818181858888f19350505050158015610ef4573d6000803e3d6000fd5b507fc62502a1c6fde494a1efaca583f01140f2293d7a07e49bc4480ff1aa8dd21af9610f28600b546001600160a01b031690565b8242604051610f39939291906126cd565b60405180910390a15050565b610f4d61120e565b7f6052da45404e645685f6790ebc0a44a8e69fb2cd5bebe73b8ebcd34d8bafc863333442604051610f80939291906126cd565b60405180910390a1565b83421115610fae57604051632341d78760e11b8152600481018590526024016108eb565b604080517fe48329057bfd03d55e49b547132e39cffd9c1820ad7b9d4c5307691425d15adf60208201526001600160a01b038816918101919091526060810186905260808101859052600090611028906110209060a00160405160208183030381529060405280519060200120611732565b85858561175f565b9050611034818761178d565b61103e818861159b565b50505050505050565b8342111561106b5760405163313c898160e11b8152600481018590526024016108eb565b60007f6e71edae12b1b97f4d1f60370fef10105fa2faae0126114a169c64845d6126c98888886110b88c6001600160a01b0316600090815260076020526040902080546001810190915590565b6040805160208101969096526001600160a01b0394851690860152929091166060840152608083015260a082015260c0810186905260e001604051602081830303815290604052805190602001209050600061111382611732565b905060006111238287878761175f565b9050896001600160a01b0316816001600160a01b03161461116a576040516325c0072360e11b81526001600160a01b0380831660048301528b1660248201526044016108eb565b6111758a8a8a6111fc565b50505050505050505050565b604080518082019091526000808252602082015261119f83836117e0565b9392505050565b6111ae61120e565b6001600160a01b0381166111d857604051631e4fbdf760e01b8152600060048201526024016108eb565b6111e18161162f565b50565b600061119f8284612741565b600061119f8284612768565b6112098383836001611816565b505050565b600b546001600160a01b03163314610cc35760405163118cdaa760e01b81523360048201526024016108eb565b6001600160a01b0382166112655760405163ec442f0560e01b8152600060048201526024016108eb565b610b3f60008383611337565b6001600160a01b0383811660009081526001602090815260408083209386168352929052205460001981146112d657818110156112c757828183604051637dc7a0d960e11b81526004016108eb939291906126cd565b6112d684848484036000611816565b50505050565b6001600160a01b03831661130657604051634b637e8f60e11b8152600060048201526024016108eb565b6001600160a01b0382166113305760405163ec442f0560e01b8152600060048201526024016108eb565b6112098383835b6112098383836118eb565b6000306001600160a01b037f00000000000000000000000000000000000000000000000000000000000000001614801561139b57507f000000000000000000000000000000000000000000000000000000000000000046145b156113c557507f000000000000000000000000000000000000000000000000000000000000000090565b6109e0604080517f8b73c3c69bb8fe3d512ecc4cf759cc79239f7b179b0ffacaa9a75d522b39400f60208201527f0000000000000000000000000000000000000000000000000000000000000000918101919091527f000000000000000000000000000000000000000000000000000000000000000060608201524660808201523060a082015260009060c00160405160208183030381529060405280519060200120905090565b600065ffffffffffff8211156114a0576040516306dfcc6560e41b815260306004820152602481018390526044016108eb565b5090565b8154600090818160058111156115035760006114bf84611952565b6114c9908561272e565b60008881526020902090915081015465ffffffffffff90811690871610156114f357809150611501565b6114fe81600161271b565b92505b505b600061151187878585611a3a565b9050801561154c576115368761152860018461272e565b600091825260209091200190565b54600160301b90046001600160d01b031661154f565b60005b979650505050505050565b6001600160a01b03821661158457604051634b637e8f60e11b8152600060048201526024016108eb565b610b3f82600083611337565b60006109e04361146d565b6001600160a01b0382811660008181526008602052604080822080548686166001600160a01b0319821681179092559151919094169392849290917f3134e8a2e6d97e929a7e54011ea5485d7d196dd5f0ba4d4ef95803e8e3fc257f9190a4611209818361160886611a9c565b611aba565b6001600160a01b0381166000908152600960205260408120546107dc90611c26565b600b80546001600160a01b038381166001600160a01b0319831681179093556040519116919082907f8be0079c531659141344cd1fd0a4f28419497f9722a3daafe3b4186f6b6457e090600090a35050565b6001600160a01b0381166000908152600760205260408120546107dc565b60606109e07f00000000000000000000000000000000000000000000000000000000000000006005611c57565b60606109e07f00000000000000000000000000000000000000000000000000000000000000006006611c57565b80546000908015611729576117138361152860018461272e565b54600160301b90046001600160d01b031661119f565b60009392505050565b60006107dc61173f611342565b8360405161190160f01b8152600281019290925260228201526042902090565b60008060008061177188888888611d02565b9250925092506117818282611dd1565b50909695505050505050565b6001600160a01b0382166000908152600760205260409020805460018101909155818114611209576040516301d4b62360e61b81526001600160a01b0384166004820152602481018290526044016108eb565b60408051808201909152600080825260208201526001600160a01b038316600090815260096020526040902061119f9083611e8a565b6001600160a01b0384166118405760405163e602df0560e01b8152600060048201526024016108eb565b6001600160a01b03831661186a57604051634a1406b160e11b8152600060048201526024016108eb565b6001600160a01b03808516600090815260016020908152604080832093871683529290522082905580156112d657826001600160a01b0316846001600160a01b03167f8c5be1e5ebec7d5bd14f71427d1e84f3dd0314c0f7b2291e5b200ac8c7c3b925846040516118dd91815260200190565b60405180910390a350505050565b6118f6838383611efa565b6001600160a01b03831661194757600061190f60025490565b90506001600160d01b038082111561194457604051630e58ae9360e11b815260048101839052602481018290526044016108eb565b50505b611209838383612011565b60008160000361196457506000919050565b6000600161197184612087565b901c6001901b9050600181848161198a5761198a612788565b048201901c905060018184816119a2576119a2612788565b048201901c905060018184816119ba576119ba612788565b048201901c905060018184816119d2576119d2612788565b048201901c905060018184816119ea576119ea612788565b048201901c90506001818481611a0257611a02612788565b048201901c90506001818481611a1a57611a1a612788565b048201901c905061119f81828581611a3457611a34612788565b0461211b565b60005b81831015611a94576000611a518484612131565b60008781526020902090915065ffffffffffff86169082015465ffffffffffff161115611a8057809250611a8e565b611a8b81600161271b565b93505b50611a3d565b509392505050565b6001600160a01b0381166000908152602081905260408120546107dc565b816001600160a01b0316836001600160a01b031614158015611adc5750600081115b15611209576001600160a01b03831615611b84576001600160a01b03831660009081526009602052604081208190611b1f906111f0611b1a8661214c565b612180565b6001600160d01b031691506001600160d01b03169150846001600160a01b03167fdec2bacdd2f05b59de34da9b523dff8be42e5e38e818c82fdb0bae774387a7248383604051611b79929190918252602082015260400190565b60405180910390a250505b6001600160a01b03821615611209576001600160a01b03821660009081526009602052604081208190611bbd906111e4611b1a8661214c565b6001600160d01b031691506001600160d01b03169150836001600160a01b03167fdec2bacdd2f05b59de34da9b523dff8be42e5e38e818c82fdb0bae774387a7248383604051611c17929190918252602082015260400190565b60405180910390a25050505050565b600063ffffffff8211156114a0576040516306dfcc6560e41b815260206004820152602481018390526044016108eb565b606060ff8314611c7157611c6a836121b9565b90506107dc565b818054611c7d90612693565b80601f0160208091040260200160405190810160405280929190818152602001828054611ca990612693565b8015611cf65780601f10611ccb57610100808354040283529160200191611cf6565b820191906000526020600020905b815481529060010190602001808311611cd957829003601f168201915b505050505090506107dc565b600080807f7fffffffffffffffffffffffffffffff5d576e7357a4501ddfe92f46681b20a0841115611d3d5750600091506003905082611dc7565b604080516000808252602082018084528a905260ff891692820192909252606081018790526080810186905260019060a0016020604051602081039080840390855afa158015611d91573d6000803e3d6000fd5b5050604051601f1901519150506001600160a01b038116611dbd57506000925060019150829050611dc7565b9250600091508190505b9450945094915050565b6000826003811115611de557611de561279e565b03611dee575050565b6001826003811115611e0257611e0261279e565b03611e205760405163f645eedf60e01b815260040160405180910390fd5b6002826003811115611e3457611e3461279e565b03611e555760405163fce698f760e01b8152600481018290526024016108eb565b6003826003811115611e6957611e6961279e565b03610b3f576040516335e2f38360e21b8152600481018290526024016108eb565b6040805180820190915260008082526020820152826000018263ffffffff1681548110611eb957611eb96127b4565b60009182526020918290206040805180820190915291015465ffffffffffff81168252600160301b90046001600160d01b0316918101919091529392505050565b6001600160a01b038316611f25578060026000828254611f1a919061271b565b90915550611f849050565b6001600160a01b03831660009081526020819052604090205481811015611f655783818360405163391434e360e21b81526004016108eb939291906126cd565b6001600160a01b03841660009081526020819052604090209082900390555b6001600160a01b038216611fa057600280548290039055611fbf565b6001600160a01b03821660009081526020819052604090208054820190555b816001600160a01b0316836001600160a01b03167fddf252ad1be2c89b69c2b068fc378daa952ba7f163c4a11628f55a4df523b3ef8360405161200491815260200190565b60405180910390a3505050565b6001600160a01b03831661203357612030600a6111e4611b1a8461214c565b50505b6001600160a01b03821661205557612052600a6111f0611b1a8461214c565b50505b6001600160a01b0383811660009081526008602052604080822054858416835291205461120992918216911683611aba565b600080608083901c1561209c57608092831c92015b604083901c156120ae57604092831c92015b602083901c156120c057602092831c92015b601083901c156120d257601092831c92015b600883901c156120e457600892831c92015b600483901c156120f657600492831c92015b600283901c1561210857600292831c92015b600183901c156107dc5760010192915050565b600081831061212a578161119f565b5090919050565b600061214060028484186127ca565b61119f9084841661271b565b60006001600160d01b038211156114a0576040516306dfcc6560e41b815260d06004820152602481018390526044016108eb565b6000806121ac61218e610e46565b6121a461219a886116f9565b868863ffffffff16565b8791906121f8565b915091505b935093915050565b606060006121c683612206565b604080516020808252818301909252919250600091906020820181803683375050509182525060208101929092525090565b6000806121ac85858561222e565b600060ff8216601f8111156107dc57604051632cd44ac360e21b815260040160405180910390fd5b82546000908190801561234d57600061224c8761152860018561272e565b60408051808201909152905465ffffffffffff808216808452600160301b9092046001600160d01b0316602084015291925090871610156122a057604051632520601d60e01b815260040160405180910390fd5b805165ffffffffffff8088169116036122ec57846122c38861152860018661272e565b80546001600160d01b0392909216600160301b0265ffffffffffff90921691909117905561233d565b6040805180820190915265ffffffffffff80881682526001600160d01b0380881660208085019182528b54600181018d5560008d81529190912094519151909216600160301b029216919091179101555b6020015192508391506121b19050565b50506040805180820190915265ffffffffffff80851682526001600160d01b0380851660208085019182528854600181018a5560008a815291822095519251909316600160301b0291909316179201919091559050816121b1565b6000815180845260005b818110156123ce576020818501810151868301820152016123b2565b506000602082860101526020601f19601f83011685010191505092915050565b60208152600061119f60208301846123a8565b80356001600160a01b038116811461241857600080fd5b919050565b6000806040838503121561243057600080fd5b61243983612401565b946020939093013593505050565b60006020828403121561245957600080fd5b5035919050565b60008060006060848603121561247557600080fd5b61247e84612401565b925061248c60208501612401565b9150604084013590509250925092565b6000602082840312156124ae57600080fd5b61119f82612401565b60ff60f81b881681526000602060e0818401526124d760e084018a6123a8565b83810360408501526124e9818a6123a8565b606085018990526001600160a01b038816608086015260a0850187905284810360c0860152855180825283870192509083019060005b8181101561253b5783518352928401929184019160010161251f565b50909c9b505050505050505050505050565b803560ff8116811461241857600080fd5b60008060008060008060c0878903121561257757600080fd5b61258087612401565b9550602087013594506040870135935061259c6060880161254d565b92506080870135915060a087013590509295509295509295565b600080600080600080600060e0888a0312156125d157600080fd5b6125da88612401565b96506125e860208901612401565b955060408801359450606088013593506126046080890161254d565b925060a0880135915060c0880135905092959891949750929550565b6000806040838503121561263357600080fd5b61263c83612401565b915061264a60208401612401565b90509250929050565b6000806040838503121561266657600080fd5b61266f83612401565b9150602083013563ffffffff8116811461268857600080fd5b809150509250929050565b600181811c908216806126a757607f821691505b6020821081036126c757634e487b7160e01b600052602260045260246000fd5b50919050565b6001600160a01b039390931683526020830191909152604082015260600190565b634e487b7160e01b600052601160045260246000fd5b80820281158282048414176107dc576107dc6126ee565b808201808211156107dc576107dc6126ee565b818103818111156107dc576107dc6126ee565b6001600160d01b03818116838216019080821115612761576127616126ee565b5092915050565b6001600160d01b03828116828216039080821115612761576127616126ee565b634e487b7160e01b600052601260045260246000fd5b634e487b7160e01b600052602160045260246000fd5b634e487b7160e01b600052603260045260246000fd5b6000826127e757634e487b7160e01b600052601260045260246000fd5b50049056fea26469706673582212201a51d2185f8a770b2798e39d8c23c67dd5f836b03216866cd135c9522f1f81d264736f6c63430008140033dec2bacdd2f05b59de34da9b523dff8be42e5e38e818c82fdb0bae774387a724",
  "linkReferences": {},
  "deployedLinkReferences": {}
}