{
  "_format": "hh-sol-artifact-1",
  "contractName": "Saing",
  "sourceName": "contracts/Saing.sol",
  "abi": [
    {
      "inputs": [
        {
          "internalType": "string",
          "name": "_name",
          "type": "string"
        },
        {
          "internalType": "string",
          "name": "_short",
          "type": "string"
        },
        {
          "internalType": "uint256",
          "name": "_nominalVolume",
          "type": "uint256"
        },
        {
          "internalType": "uint256",
          "name": "_initTokenPrice",
          "type": "uint256"
        },
        {
          "internalType": "uint256",
          "name": "_priceChangeStep",
          "type": "uint256"
        }
      ],
      "stateMutability": "nonpayable",
      "type": "constructor"
    },
    {
      "inputs": [],
      "name": "CheckpointUnorderedInsertion",
      "type": "error"
    },
    {
      "inputs": [],
      "name": "ECDSAInvalidSignature",
      "type": "error"
    },
    {
      "inputs": [
        {
          "internalType": "uint256",
          "name": "length",
          "type": "uint256"
        }
      ],
      "name": "ECDSAInvalidSignatureLength",
      "type": "error"
    },
    {
      "inputs": [
        {
          "internalType": "bytes32",
          "name": "s",
          "type": "bytes32"
        }
      ],
      "name": "ECDSAInvalidSignatureS",
      "type": "error"
    },
    {
      "inputs": [
        {
          "internalType": "uint256",
          "name": "increasedSupply",
          "type": "uint256"
        },
        {
          "internalType": "uint256",
          "name": "cap",
          "type": "uint256"
        }
      ],
      "name": "ERC20ExceededSafeSupply",
      "type": "error"
    },
    {
      "inputs": [
        {
          "internalType": "address",
          "name": "spender",
          "type": "address"
        },
        {
          "internalType": "uint256",
          "name": "allowance",
          "type": "uint256"
        },
        {
          "internalType": "uint256",
          "name": "needed",
          "type": "uint256"
        }
      ],
      "name": "ERC20InsufficientAllowance",
      "type": "error"
    },
    {
      "inputs": [
        {
          "internalType": "address",
          "name": "sender",
          "type": "address"
        },
        {
          "internalType": "uint256",
          "name": "balance",
          "type": "uint256"
        },
        {
          "internalType": "uint256",
          "name": "needed",
          "type": "uint256"
        }
      ],
      "name": "ERC20InsufficientBalance",
      "type": "error"
    },
    {
      "inputs": [
        {
          "internalType": "address",
          "name": "approver",
          "type": "address"
        }
      ],
      "name": "ERC20InvalidApprover",
      "type": "error"
    },
    {
      "inputs": [
        {
          "internalType": "address",
          "name": "receiver",
          "type": "address"
        }
      ],
      "name": "ERC20InvalidReceiver",
      "type": "error"
    },
    {
      "inputs": [
        {
          "internalType": "address",
          "name": "sender",
          "type": "address"
        }
      ],
      "name": "ERC20InvalidSender",
      "type": "error"
    },
    {
      "inputs": [
        {
          "internalType": "address",
          "name": "spender",
          "type": "address"
        }
      ],
      "name": "ERC20InvalidSpender",
      "type": "error"
    },
    {
      "inputs": [
        {
          "internalType": "uint256",
          "name": "deadline",
          "type": "uint256"
        }
      ],
      "name": "ERC2612ExpiredSignature",
      "type": "error"
    },
    {
      "inputs": [
        {
          "internalType": "address",
          "name": "signer",
          "type": "address"
        },
        {
          "internalType": "address",
          "name": "owner",
          "type": "address"
        }
      ],
      "name": "ERC2612InvalidSigner",
      "type": "error"
    },
    {
      "inputs": [
        {
          "internalType": "uint256",
          "name": "timepoint",
          "type": "uint256"
        },
        {
          "internalType": "uint48",
          "name": "clock",
          "type": "uint48"
        }
      ],
      "name": "ERC5805FutureLookup",
      "type": "error"
    },
    {
      "inputs": [],
      "name": "ERC6372InconsistentClock",
      "type": "error"
    },
    {
      "inputs": [
        {
          "internalType": "address",
          "name": "account",
          "type": "address"
        },
        {
          "internalType": "uint256",
          "name": "currentNonce",
          "type": "uint256"
        }
      ],
      "name": "InvalidAccountNonce",
      "type": "error"
    },
    {
      "inputs": [],
      "name": "InvalidShortString",
      "type": "error"
    },
    {
      "inputs": [
        {
          "internalType": "address",
          "name": "owner",
          "type": "address"
        }
      ],
      "name": "OwnableInvalidOwner",
      "type": "error"
    },
    {
      "inputs": [
        {
          "internalType": "address",
          "name": "account",
          "type": "address"
        }
      ],
      "name": "OwnableUnauthorizedAccount",
      "type": "error"
    },
    {
      "inputs": [
        {
          "internalType": "uint8",
          "name": "bits",
          "type": "uint8"
        },
        {
          "internalType": "uint256",
          "name": "value",
          "type": "uint256"
        }
      ],
      "name": "SafeCastOverflowedUintDowncast",
      "type": "error"
    },
    {
      "inputs": [
        {
          "internalType": "string",
          "name": "str",
          "type": "string"
        }
      ],
      "name": "StringTooLong",
      "type": "error"
    },
    {
      "inputs": [
        {
          "internalType": "uint256",
          "name": "expiry",
          "type": "uint256"
        }
      ],
      "name": "VotesExpiredSignature",
      "type": "error"
    },
    {
      "anonymous": false,
      "inputs": [
        {
          "indexed": true,
          "internalType": "address",
          "name": "owner",
          "type": "address"
        },
        {
          "indexed": true,
          "internalType": "address",
          "name": "spender",
          "type": "address"
        },
        {
          "indexed": false,
          "internalType": "uint256",
          "name": "value",
          "type": "uint256"
        }
      ],
      "name": "Approval",
      "type": "event"
    },
    {
      "anonymous": false,
      "inputs": [
        {
          "indexed": true,
          "internalType": "address",
          "name": "delegator",
          "type": "address"
        },
        {
          "indexed": true,
          "internalType": "address",
          "name": "fromDelegate",
          "type": "address"
        },
        {
          "indexed": true,
          "internalType": "address",
          "name": "toDelegate",
          "type": "address"
        }
      ],
      "name": "DelegateChanged",
      "type": "event"
    },
    {
      "anonymous": false,
      "inputs": [
        {
          "indexed": true,
          "internalType": "address",
          "name": "delegate",
          "type": "address"
        },
        {
          "indexed": false,
          "internalType": "uint256",
          "name": "previousVotes",
          "type": "uint256"
        },
        {
          "indexed": false,
          "internalType": "uint256",
          "name": "newVotes",
          "type": "uint256"
        }
      ],
      "name": "DelegateVotesChanged",
      "type": "event"
    },
    {
      "anonymous": false,
      "inputs": [],
      "name": "EIP712DomainChanged",
      "type": "event"
    },
    {
      "anonymous": false,
      "inputs": [
        {
          "indexed": true,
          "internalType": "address",
          "name": "previousOwner",
          "type": "address"
        },
        {
          "indexed": true,
          "internalType": "address",
          "name": "newOwner",
          "type": "address"
        }
      ],
      "name": "OwnershipTransferred",
      "type": "event"
    },
    {
      "anonymous": false,
      "inputs": [
        {
          "indexed": false,
          "internalType": "address",
          "name": "_owner",
          "type": "address"
        },
        {
          "indexed": false,
          "internalType": "uint256",
          "name": "_count",
          "type": "uint256"
        },
        {
          "indexed": false,
          "internalType": "uint256",
          "name": "_timestamp",
          "type": "uint256"
        }
      ],
      "name": "TokenAdd",
      "type": "event"
    },
    {
      "anonymous": false,
      "inputs": [
        {
          "indexed": false,
          "internalType": "address",
          "name": "_owner",
          "type": "address"
        },
        {
          "indexed": false,
          "internalType": "uint256",
          "name": "_count",
          "type": "uint256"
        },
        {
          "indexed": false,
          "internalType": "uint256",
          "name": "_timestamp",
          "type": "uint256"
        }
      ],
      "name": "TokenBurn",
      "type": "event"
    },
    {
      "anonymous": false,
      "inputs": [
        {
          "indexed": false,
          "internalType": "address",
          "name": "_owner",
          "type": "address"
        },
        {
          "indexed": false,
          "internalType": "uint256",
          "name": "_count",
          "type": "uint256"
        },
        {
          "indexed": false,
          "internalType": "uint256",
          "name": "_timestamp",
          "type": "uint256"
        }
      ],
      "name": "TokenFundContract",
      "type": "event"
    },
    {
      "anonymous": false,
      "inputs": [
        {
          "indexed": true,
          "internalType": "address",
          "name": "buyer",
          "type": "address"
        },
        {
          "indexed": false,
          "internalType": "uint256",
          "name": "count",
          "type": "uint256"
        },
        {
          "indexed": false,
          "internalType": "uint256",
          "name": "price",
          "type": "uint256"
        }
      ],
      "name": "TokenPurchased",
      "type": "event"
    },
    {
      "anonymous": false,
      "inputs": [
        {
          "indexed": true,
          "internalType": "address",
          "name": "seller",
          "type": "address"
        },
        {
          "indexed": false,
          "internalType": "uint256",
          "name": "count",
          "type": "uint256"
        },
        {
          "indexed": false,
          "internalType": "uint256",
          "name": "price",
          "type": "uint256"
        }
      ],
      "name": "TokenSold",
      "type": "event"
    },
    {
      "anonymous": false,
      "inputs": [
        {
          "indexed": false,
          "internalType": "address",
          "name": "_owner",
          "type": "address"
        },
        {
          "indexed": false,
          "internalType": "uint256",
          "name": "_count",
          "type": "uint256"
        },
        {
          "indexed": false,
          "internalType": "uint256",
          "name": "_timestamp",
          "type": "uint256"
        }
      ],
      "name": "TokenWithDraft",
      "type": "event"
    },
    {
      "anonymous": false,
      "inputs": [
        {
          "indexed": true,
          "internalType": "address",
          "name": "from",
          "type": "address"
        },
        {
          "indexed": true,
          "internalType": "address",
          "name": "to",
          "type": "address"
        },
        {
          "indexed": false,
          "internalType": "uint256",
          "name": "value",
          "type": "uint256"
        }
      ],
      "name": "Transfer",
      "type": "event"
    },
    {
      "inputs": [],
      "name": "CLOCK_MODE",
      "outputs": [
        {
          "internalType": "string",
          "name": "",
          "type": "string"
        }
      ],
      "stateMutability": "view",
      "type": "function"
    },
    {
      "inputs": [],
      "name": "DOMAIN_SEPARATOR",
      "outputs": [
        {
          "internalType": "bytes32",
          "name": "",
          "type": "bytes32"
        }
      ],
      "stateMutability": "view",
      "type": "function"
    },
    {
      "inputs": [
        {
          "internalType": "uint256",
          "name": "_count",
          "type": "uint256"
        }
      ],
      "name": "addToken",
      "outputs": [],
      "stateMutability": "nonpayable",
      "type": "function"
    },
    {
      "inputs": [
        {
          "internalType": "address",
          "name": "owner",
          "type": "address"
        },
        {
          "internalType": "address",
          "name": "spender",
          "type": "address"
        }
      ],
      "name": "allowance",
      "outputs": [
        {
          "internalType": "uint256",
          "name": "",
          "type": "uint256"
        }
      ],
      "stateMutability": "view",
      "type": "function"
    },
    {
      "inputs": [
        {
          "internalType": "address",
          "name": "spender",
          "type": "address"
        },
        {
          "internalType": "uint256",
          "name": "value",
          "type": "uint256"
        }
      ],
      "name": "approve",
      "outputs": [
        {
          "internalType": "bool",
          "name": "",
          "type": "bool"
        }
      ],
      "stateMutability": "nonpayable",
      "type": "function"
    },
    {
      "inputs": [
        {
          "internalType": "address",
          "name": "account",
          "type": "address"
        }
      ],
      "name": "balanceOf",
      "outputs": [
        {
          "internalType": "uint256",
          "name": "",
          "type": "uint256"
        }
      ],
      "stateMutability": "view",
      "type": "function"
    },
    {
      "inputs": [
        {
          "internalType": "uint256",
          "name": "_count",
          "type": "uint256"
        }
      ],
      "name": "burn",
      "outputs": [],
      "stateMutability": "nonpayable",
      "type": "function"
    },
    {
      "inputs": [
        {
          "internalType": "uint256",
          "name": "_count",
          "type": "uint256"
        }
      ],
      "name": "buyTokens",
      "outputs": [],
      "stateMutability": "payable",
      "type": "function"
    },
    {
      "inputs": [
        {
          "internalType": "address",
          "name": "account",
          "type": "address"
        },
        {
          "internalType": "uint32",
          "name": "pos",
          "type": "uint32"
        }
      ],
      "name": "checkpoints",
      "outputs": [
        {
          "components": [
            {
              "internalType": "uint48",
              "name": "_key",
              "type": "uint48"
            },
            {
              "internalType": "uint208",
              "name": "_value",
              "type": "uint208"
            }
          ],
          "internalType": "struct Checkpoints.Checkpoint208",
          "name": "",
          "type": "tuple"
        }
      ],
      "stateMutability": "view",
      "type": "function"
    },
    {
      "inputs": [],
      "name": "clock",
      "outputs": [
        {
          "internalType": "uint48",
          "name": "",
          "type": "uint48"
        }
      ],
      "stateMutability": "view",
      "type": "function"
    },
    {
      "inputs": [],
      "name": "decimals",
      "outputs": [
        {
          "internalType": "uint8",
          "name": "",
          "type": "uint8"
        }
      ],
      "stateMutability": "view",
      "type": "function"
    },
    {
      "inputs": [
        {
          "internalType": "address",
          "name": "delegatee",
          "type": "address"
        }
      ],
      "name": "delegate",
      "outputs": [],
      "stateMutability": "nonpayable",
      "type": "function"
    },
    {
      "inputs": [
        {
          "internalType": "address",
          "name": "delegatee",
          "type": "address"
        },
        {
          "internalType": "uint256",
          "name": "nonce",
          "type": "uint256"
        },
        {
          "internalType": "uint256",
          "name": "expiry",
          "type": "uint256"
        },
        {
          "internalType": "uint8",
          "name": "v",
          "type": "uint8"
        },
        {
          "internalType": "bytes32",
          "name": "r",
          "type": "bytes32"
        },
        {
          "internalType": "bytes32",
          "name": "s",
          "type": "bytes32"
        }
      ],
      "name": "delegateBySig",
      "outputs": [],
      "stateMutability": "nonpayable",
      "type": "function"
    },
    {
      "inputs": [
        {
          "internalType": "address",
          "name": "account",
          "type": "address"
        }
      ],
      "name": "delegates",
      "outputs": [
        {
          "internalType": "address",
          "name": "",
          "type": "address"
        }
      ],
      "stateMutability": "view",
      "type": "function"
    },
    {
      "inputs": [],
      "name": "eip712Domain",
      "outputs": [
        {
          "internalType": "bytes1",
          "name": "fields",
          "type": "bytes1"
        },
        {
          "internalType": "string",
          "name": "name",
          "type": "string"
        },
        {
          "internalType": "string",
          "name": "version",
          "type": "string"
        },
        {
          "internalType": "uint256",
          "name": "chainId",
          "type": "uint256"
        },
        {
          "internalType": "address",
          "name": "verifyingContract",
          "type": "address"
        },
        {
          "internalType": "bytes32",
          "name": "salt",
          "type": "bytes32"
        },
        {
          "internalType": "uint256[]",
          "name": "extensions",
          "type": "uint256[]"
        }
      ],
      "stateMutability": "view",
      "type": "function"
    },
    {
      "inputs": [],
      "name": "fundContract",
      "outputs": [],
      "stateMutability": "payable",
      "type": "function"
    },
    {
      "inputs": [
        {
          "internalType": "uint256",
          "name": "timepoint",
          "type": "uint256"
        }
      ],
      "name": "getPastTotalSupply",
      "outputs": [
        {
          "internalType": "uint256",
          "name": "",
          "type": "uint256"
        }
      ],
      "stateMutability": "view",
      "type": "function"
    },
    {
      "inputs": [
        {
          "internalType": "address",
          "name": "account",
          "type": "address"
        },
        {
          "internalType": "uint256",
          "name": "timepoint",
          "type": "uint256"
        }
      ],
      "name": "getPastVotes",
      "outputs": [
        {
          "internalType": "uint256",
          "name": "",
          "type": "uint256"
        }
      ],
      "stateMutability": "view",
      "type": "function"
    },
    {
      "inputs": [],
      "name": "getTokenPrice",
      "outputs": [
        {
          "internalType": "uint256",
          "name": "",
          "type": "uint256"
        }
      ],
      "stateMutability": "view",
      "type": "function"
    },
    {
      "inputs": [
        {
          "internalType": "address",
          "name": "account",
          "type": "address"
        }
      ],
      "name": "getVotes",
      "outputs": [
        {
          "internalType": "uint256",
          "name": "",
          "type": "uint256"
        }
      ],
      "stateMutability": "view",
      "type": "function"
    },
    {
      "inputs": [],
      "name": "minTokenPrice",
      "outputs": [
        {
          "internalType": "uint256",
          "name": "",
          "type": "uint256"
        }
      ],
      "stateMutability": "view",
      "type": "function"
    },
    {
      "inputs": [],
      "name": "name",
      "outputs": [
        {
          "internalType": "string",
          "name": "",
          "type": "string"
        }
      ],
      "stateMutability": "view",
      "type": "function"
    },
    {
      "inputs": [],
      "name": "nominalVolume",
      "outputs": [
        {
          "internalType": "uint256",
          "name": "",
          "type": "uint256"
        }
      ],
      "stateMutability": "view",
      "type": "function"
    },
    {
      "inputs": [
        {
          "internalType": "address",
          "name": "owner",
          "type": "address"
        }
      ],
      "name": "nonces",
      "outputs": [
        {
          "internalType": "uint256",
          "name": "",
          "type": "uint256"
        }
      ],
      "stateMutability": "view",
      "type": "function"
    },
    {
      "inputs": [
        {
          "internalType": "address",
          "name": "account",
          "type": "address"
        }
      ],
      "name": "numCheckpoints",
      "outputs": [
        {
          "internalType": "uint32",
          "name": "",
          "type": "uint32"
        }
      ],
      "stateMutability": "view",
      "type": "function"
    },
    {
      "inputs": [],
      "name": "owner",
      "outputs": [
        {
          "internalType": "address",
          "name": "",
          "type": "address"
        }
      ],
      "stateMutability": "view",
      "type": "function"
    },
    {
      "inputs": [
        {
          "internalType": "address",
          "name": "owner",
          "type": "address"
        },
        {
          "internalType": "address",
          "name": "spender",
          "type": "address"
        },
        {
          "internalType": "uint256",
          "name": "value",
          "type": "uint256"
        },
        {
          "internalType": "uint256",
          "name": "deadline",
          "type": "uint256"
        },
        {
          "internalType": "uint8",
          "name": "v",
          "type": "uint8"
        },
        {
          "internalType": "bytes32",
          "name": "r",
          "type": "bytes32"
        },
        {
          "internalType": "bytes32",
          "name": "s",
          "type": "bytes32"
        }
      ],
      "name": "permit",
      "outputs": [],
      "stateMutability": "nonpayable",
      "type": "function"
    },
    {
      "inputs": [],
      "name": "priceChangeStep",
      "outputs": [
        {
          "internalType": "uint256",
          "name": "",
          "type": "uint256"
        }
      ],
      "stateMutability": "view",
      "type": "function"
    },
    {
      "inputs": [],
      "name": "renounceOwnership",
      "outputs": [],
      "stateMutability": "nonpayable",
      "type": "function"
    },
    {
      "inputs": [
        {
          "internalType": "uint256",
          "name": "_count",
          "type": "uint256"
        }
      ],
      "name": "sellTokens",
      "outputs": [],
      "stateMutability": "nonpayable",
      "type": "function"
    },
    {
      "inputs": [],
      "name": "symbol",
      "outputs": [
        {
          "internalType": "string",
          "name": "",
          "type": "string"
        }
      ],
      "stateMutability": "view",
      "type": "function"
    },
    {
      "inputs": [],
      "name": "totalSupply",
      "outputs": [
        {
          "internalType": "uint256",
          "name": "",
          "type": "uint256"
        }
      ],
      "stateMutability": "view",
      "type": "function"
    },
    {
      "inputs": [
        {
          "internalType": "address",
          "name": "to",
          "type": "address"
        },
        {
          "internalType": "uint256",
          "name": "value",
          "type": "uint256"
        }
      ],
      "name": "transfer",
      "outputs": [
        {
          "internalType": "bool",
          "name": "",
          "type": "bool"
        }
      ],
      "stateMutability": "nonpayable",
      "type": "function"
    },
    {
      "inputs": [
        {
          "internalType": "address",
          "name": "from",
          "type": "address"
        },
        {
          "internalType": "address",
          "name": "to",
          "type": "address"
        },
        {
          "internalType": "uint256",
          "name": "value",
          "type": "uint256"
        }
      ],
      "name": "transferFrom",
      "outputs": [
        {
          "internalType": "bool",
          "name": "",
          "type": "bool"
        }
      ],
      "stateMutability": "nonpayable",
      "type": "function"
    },
    {
      "inputs": [
        {
          "internalType": "address",
          "name": "newOwner",
          "type": "address"
        }
      ],
      "name": "transferOwnership",
      "outputs": [],
      "stateMutability": "nonpayable",
      "type": "function"
    },
    {
      "inputs": [],
      "name": "withdraftAll",
      "outputs": [],
      "stateMutability": "nonpayable",
      "type": "function"
    },
    {
      "inputs": [
        {
          "internalType": "uint256",
          "name": "_count",
          "type": "uint256"
        }
      ],
      "name": "withdrawPart",
      "outputs": [],
      "stateMutability": "nonpayable",
      "type": "function"
    }
  ],
  "bytecode": "0x6101606040523480156200001257600080fd5b5060405162003528380380620035288339810160408190526200003591620009f6565b338580604051806040016040528060018152602001603160f81b8152508888816003908162000065919062000b09565b50600462000074828262000b09565b5062000086915083905060056200018c565b61012052620000978160066200018c565b61014052815160208084019190912060e052815190820120610100524660a0526200012560e05161010051604080517f8b73c3c69bb8fe3d512ecc4cf759cc79239f7b179b0ffacaa9a75d522b39400f60208201529081019290925260608201524660808201523060a082015260009060c00160405160208183030381529060405280519060200120905090565b60805250503060c052506001600160a01b0381166200015f57604051631e4fbdf760e01b8152600060048201526024015b60405180910390fd5b6200016a81620001c5565b5062000177338462000217565b600c92909255600d55600e555062000cbe9050565b6000602083511015620001ac57620001a48362000255565b9050620001bf565b81620001b9848262000b09565b5060ff90505b92915050565b600b80546001600160a01b038381166001600160a01b0319831681179093556040519116919082907f8be0079c531659141344cd1fd0a4f28419497f9722a3daafe3b4186f6b6457e090600090a35050565b6001600160a01b038216620002435760405163ec442f0560e01b81526000600482015260240162000156565b620002516000838362000298565b5050565b600080829050601f8151111562000283578260405163305a27a960e01b815260040162000156919062000bd5565b8051620002908262000c0a565b179392505050565b620002a5838383620002aa565b505050565b620002b783838362000319565b6001600160a01b0383166200030c576000620002d260025490565b90506001600160d01b03808211156200030957604051630e58ae9360e11b8152600481018390526024810182905260440162000156565b50505b620002a58383836200044c565b6001600160a01b038316620003485780600260008282546200033c919062000c45565b90915550620003bc9050565b6001600160a01b038316600090815260208190526040902054818110156200039d5760405163391434e360e21b81526001600160a01b0385166004820152602481018290526044810183905260640162000156565b6001600160a01b03841660009081526020819052604090209082900390555b6001600160a01b038216620003da57600280548290039055620003f9565b6001600160a01b03821660009081526020819052604090208054820190555b816001600160a01b0316836001600160a01b03167fddf252ad1be2c89b69c2b068fc378daa952ba7f163c4a11628f55a4df523b3ef836040516200043f91815260200190565b60405180910390a3505050565b6001600160a01b03831662000481576200047e600a620011b1620004e460201b176200047884620004f9565b62000533565b50505b6001600160a01b038216620004b057620004ad600a620011bd6200057060201b176200047884620004f9565b50505b6001600160a01b03838116600090815260086020526040808220548584168352912054620002a5929182169116836200057e565b6000620004f2828462000c5b565b9392505050565b60006001600160d01b038211156200052f576040516306dfcc6560e41b815260d060048201526024810183905260440162000156565b5090565b6000806200056362000544620006e5565b6200055a6200055388620006f6565b868860201c565b87919062000745565b915091505b935093915050565b6000620004f2828462000c85565b816001600160a01b0316836001600160a01b031614158015620005a15750600081115b15620002a5576001600160a01b0383161562000644576001600160a01b038316600090815260096020908152604082208291620005ef919062000570901b620011bd176200047886620004f9565b6001600160d01b031691506001600160d01b03169150846001600160a01b031660008051602062003508833981519152838360405162000639929190918252602082015260400190565b60405180910390a250505b6001600160a01b03821615620002a5576001600160a01b0382166000908152600960209081526040822082916200068c9190620004e4901b620011b1176200047886620004f9565b6001600160d01b031691506001600160d01b03169150836001600160a01b0316600080516020620035088339815191528383604051620006d6929190918252602082015260400190565b60405180910390a25050505050565b6000620006f162000755565b905090565b805460009080156200073c5762000722836200071460018462000ca8565b600091825260209091200190565b54660100000000000090046001600160d01b0316620004f2565b60009392505050565b6000806200056385858562000762565b6000620006f143620008f4565b8254600090819080156200089557600062000784876200071460018562000ca8565b60408051808201909152905465ffffffffffff80821680845266010000000000009092046001600160d01b031660208401529192509087161015620007dc57604051632520601d60e01b815260040160405180910390fd5b805165ffffffffffff80881691160362000830578462000803886200071460018662000ca8565b80546001600160d01b039290921666010000000000000265ffffffffffff90921691909117905562000884565b6040805180820190915265ffffffffffff80881682526001600160d01b0380881660208085019182528b54600181018d5560008d815291909120945191519092166601000000000000029216919091179101555b602001519250839150620005689050565b50506040805180820190915265ffffffffffff80851682526001600160d01b0380851660208085019182528854600181018a5560008a815291822095519251909316660100000000000002919093161792019190915590508162000568565b600065ffffffffffff8211156200052f576040516306dfcc6560e41b8152603060048201526024810183905260440162000156565b634e487b7160e01b600052604160045260246000fd5b60005b838110156200095c57818101518382015260200162000942565b50506000910152565b600082601f8301126200097757600080fd5b81516001600160401b038082111562000994576200099462000929565b604051601f8301601f19908116603f01168101908282118183101715620009bf57620009bf62000929565b81604052838152866020858801011115620009d957600080fd5b620009ec8460208301602089016200093f565b9695505050505050565b600080600080600060a0868803121562000a0f57600080fd5b85516001600160401b038082111562000a2757600080fd5b62000a3589838a0162000965565b9650602088015191508082111562000a4c57600080fd5b5062000a5b8882890162000965565b60408801516060890151608090990151979a919950979695509350505050565b600181811c9082168062000a9057607f821691505b60208210810362000ab157634e487b7160e01b600052602260045260246000fd5b50919050565b601f821115620002a557600081815260208120601f850160051c8101602086101562000ae05750805b601f850160051c820191505b8181101562000b015782815560010162000aec565b505050505050565b81516001600160401b0381111562000b255762000b2562000929565b62000b3d8162000b36845462000a7b565b8462000ab7565b602080601f83116001811462000b75576000841562000b5c5750858301515b600019600386901b1c1916600185901b17855562000b01565b600085815260208120601f198616915b8281101562000ba65788860151825594840194600190910190840162000b85565b508582101562000bc55787850151600019600388901b60f8161c191681555b5050505050600190811b01905550565b602081526000825180602084015262000bf68160408501602087016200093f565b601f01601f19169190910160400192915050565b8051602080830151919081101562000ab15760001960209190910360031b1b16919050565b634e487b7160e01b600052601160045260246000fd5b80820180821115620001bf57620001bf62000c2f565b6001600160d01b0381811683821601908082111562000c7e5762000c7e62000c2f565b5092915050565b6001600160d01b0382811682821603908082111562000c7e5762000c7e62000c2f565b81810381811115620001bf57620001bf62000c2f565b60805160a05160c05160e0516101005161012051610140516127ef62000d1960003960006116a001526000611673015260006113e9015260006113c10152600061131c015260006113460152600061137001526127ef6000f3fe60806040526004361061021a5760003560e01c806370a08231116101235780639ab24eb0116100ab578063d505accf1161006f578063d505accf1461062a578063dd62ed3e1461064a578063edfc8a4614610690578063f1127ed8146106a6578063f2fde38b146106f257600080fd5b80639ab24eb0146105ad578063a9059cbb146105cd578063b3cb57ef146105ed578063bd097e2114610602578063c3cda5201461060a57600080fd5b806384b0196e116100f257806384b0196e146105065780638da5cb5b1461052e5780638e539e8c1461054c57806391ddadf41461056c57806395d89b411461059857600080fd5b806370a082311461047b578063715018a6146104b15780637daf06fd146104c65780637ecebe00146104e657600080fd5b806342966c68116101a6578063587cde1e11610175578063587cde1e1461039f5780635c19a95c146103f05780635dabb20e146104105780636c11bcd3146104265780636fcfff451461044657600080fd5b806342966c681461033f5780634b94f50e1461035f5780634bf5d7e914610374578063587bd8801461038957600080fd5b806323b872dd116101ed57806323b872dd146102bb578063313ce567146102db5780633610724e146102f75780633644e5151461030a5780633a46b1a81461031f57600080fd5b806306fdde031461021f578063095ea7b31461024a578063179d375c1461027a57806318160ddd1461029c575b600080fd5b34801561022b57600080fd5b50610234610712565b60405161024191906123bb565b60405180910390f35b34801561025657600080fd5b5061026a6102653660046123ea565b6107a4565b6040519015158152602001610241565b34801561028657600080fd5b5061029a610295366004612414565b6107be565b005b3480156102a857600080fd5b506002545b604051908152602001610241565b3480156102c757600080fd5b5061026a6102d636600461242d565b610830565b3480156102e757600080fd5b5060405160128152602001610241565b61029a610305366004612414565b610854565b34801561031657600080fd5b506102ad6109a3565b34801561032b57600080fd5b506102ad61033a3660046123ea565b6109b2565b34801561034b57600080fd5b5061029a61035a366004612414565b610a33565b34801561036b57600080fd5b50600d546102ad565b34801561038057600080fd5b50610234610a89565b34801561039557600080fd5b506102ad600e5481565b3480156103ab57600080fd5b506103d86103ba366004612469565b6001600160a01b039081166000908152600860205260409020541690565b6040516001600160a01b039091168152602001610241565b3480156103fc57600080fd5b5061029a61040b366004612469565b610b01565b34801561041c57600080fd5b506102ad600d5481565b34801561043257600080fd5b5061029a610441366004612414565b610b10565b34801561045257600080fd5b50610466610461366004612469565b610c73565b60405163ffffffff9091168152602001610241565b34801561048757600080fd5b506102ad610496366004612469565b6001600160a01b031660009081526020819052604090205490565b3480156104bd57600080fd5b5061029a610c7e565b3480156104d257600080fd5b5061029a6104e1366004612414565b610c92565b3480156104f257600080fd5b506102ad610501366004612469565b610d58565b34801561051257600080fd5b5061051b610d63565b6040516102419796959493929190612484565b34801561053a57600080fd5b50600b546001600160a01b03166103d8565b34801561055857600080fd5b506102ad610567366004612414565b610da9565b34801561057857600080fd5b50610581610e13565b60405165ffffffffffff9091168152602001610241565b3480156105a457600080fd5b50610234610e1d565b3480156105b957600080fd5b506102ad6105c8366004612469565b610e2c565b3480156105d957600080fd5b5061026a6105e83660046123ea565b610e5c565b3480156105f957600080fd5b5061029a610e6a565b61029a610f12565b34801561061657600080fd5b5061029a61062536600461252b565b610f57565b34801561063657600080fd5b5061029a610645366004612583565b611014565b34801561065657600080fd5b506102ad6106653660046125ed565b6001600160a01b03918216600090815260016020908152604080832093909416825291909152205490565b34801561069c57600080fd5b506102ad600c5481565b3480156106b257600080fd5b506106c66106c1366004612620565b61114e565b60408051825165ffffffffffff1681526020928301516001600160d01b03169281019290925201610241565b3480156106fe57600080fd5b5061029a61070d366004612469565b611173565b60606003805461072190612660565b80601f016020809104026020016040519081016040528092919081815260200182805461074d90612660565b801561079a5780601f1061076f5761010080835404028352916020019161079a565b820191906000526020600020905b81548152906001019060200180831161077d57829003601f168201915b5050505050905090565b6000336107b28185856111c9565b60019150505b92915050565b6107c66111db565b6107e16107db600b546001600160a01b031690565b82611208565b7f935ac45a47bdcfde7a77273d4157012e945f8b4925ce47e0a5027e77eca8632e610814600b546001600160a01b031690565b82426040516108259392919061269a565b60405180910390a150565b60003361083e85828561123e565b6108498585856112a9565b506001949350505050565b600081610860600d5490565b61086a91906126d1565b9050803410156108c15760405162461bcd60e51b815260206004820152601760248201527f496e73756666696369656e742066756e64732073656e7400000000000000000060448201526064015b60405180910390fd5b816108d7610496600b546001600160a01b031690565b10156109255760405162461bcd60e51b815260206004820152601b60248201527f4e6f7420656e6f75676820746f6b656e7320617661696c61626c65000000000060448201526064016108b8565b61094161093a600b546001600160a01b031690565b3384611304565b600e54600d600082825461095591906126e8565b909155503390507f3ceffd410054fdaed44f598ff5c1fb450658778e2241892da4aa646979dee61783610987600d5490565b6040805192835260208301919091520160405180910390a25050565b60006109ad61130f565b905090565b6000806109bd610e13565b90508065ffffffffffff1683106109f857604051637669fc0f60e11b81526004810184905265ffffffffffff821660248201526044016108b8565b610a22610a048461143a565b6001600160a01b038616600090815260096020526040902090611471565b6001600160d01b0316949350505050565b610a3b6111db565b610a56610a50600b546001600160a01b031690565b82611527565b7ffe9e0b0c1e3e9216717d5f66d10bc310b12c366417e150b4b1af9fb9620bca91610814600b546001600160a01b031690565b6060610a9361155d565b65ffffffffffff16610aa3610e13565b65ffffffffffff1614610ac9576040516301bfc1c560e61b815260040160405180910390fd5b5060408051808201909152601d81527f6d6f64653d626c6f636b6e756d6265722666726f6d3d64656661756c74000000602082015290565b33610b0c8183611568565b5050565b33600090815260208190526040902054811115610b6f5760405162461bcd60e51b815260206004820152601a60248201527f496e73756666696369656e7420746f6b656e2062616c616e636500000000000060448201526064016108b8565b600081610b7b600d5490565b610b8591906126d1565b905080471015610bd75760405162461bcd60e51b815260206004820152601d60248201527f496e73756666696369656e7420636f6e74726163742062616c616e636500000060448201526064016108b8565b610bf333610bed600b546001600160a01b031690565b84611304565b600e54600d541115610c1957600e54600d6000828254610c1391906126fb565b90915550505b604051339082156108fc029083906000818181858888f19350505050158015610c46573d6000803e3d6000fd5b50337f35ea94addbc62df281ade49cc2ad9b3d9259166170cf702928b4ddc045f7256e83610987600d5490565b60006107b8826115da565b610c866111db565b610c9060006115fc565b565b610c9a6111db565b80471015610cea5760405162461bcd60e51b815260206004820152601d60248201527f496e73756666696369656e7420636f6e74726163742062616c616e636500000060448201526064016108b8565b600b546040516001600160a01b039091169082156108fc029083906000818181858888f19350505050158015610d24573d6000803e3d6000fd5b507fc62502a1c6fde494a1efaca583f01140f2293d7a07e49bc4480ff1aa8dd21af9610814600b546001600160a01b031690565b60006107b88261164e565b600060608060008060006060610d7761166c565b610d7f611699565b60408051600080825260208201909252600f60f81b9b939a50919850469750309650945092509050565b600080610db4610e13565b90508065ffffffffffff168310610def57604051637669fc0f60e11b81526004810184905265ffffffffffff821660248201526044016108b8565b610e03610dfb8461143a565b600a90611471565b6001600160d01b03169392505050565b60006109ad61155d565b60606004805461072190612660565b6001600160a01b0381166000908152600960205260408120610e4d906116c6565b6001600160d01b031692915050565b6000336107b28185856112a9565b610e726111db565b6000610e86600b546001600160a01b031690565b60405190915047906001600160a01b0383169082156108fc029083906000818181858888f19350505050158015610ec1573d6000803e3d6000fd5b507fc62502a1c6fde494a1efaca583f01140f2293d7a07e49bc4480ff1aa8dd21af9610ef5600b546001600160a01b031690565b8242604051610f069392919061269a565b60405180910390a15050565b610f1a6111db565b7f6052da45404e645685f6790ebc0a44a8e69fb2cd5bebe73b8ebcd34d8bafc863333442604051610f4d9392919061269a565b60405180910390a1565b83421115610f7b57604051632341d78760e11b8152600481018590526024016108b8565b604080517fe48329057bfd03d55e49b547132e39cffd9c1820ad7b9d4c5307691425d15adf60208201526001600160a01b038816918101919091526060810186905260808101859052600090610ff590610fed9060a001604051602081830303815290604052805190602001206116ff565b85858561172c565b9050611001818761175a565b61100b8188611568565b50505050505050565b834211156110385760405163313c898160e11b8152600481018590526024016108b8565b60007f6e71edae12b1b97f4d1f60370fef10105fa2faae0126114a169c64845d6126c98888886110858c6001600160a01b0316600090815260076020526040902080546001810190915590565b6040805160208101969096526001600160a01b0394851690860152929091166060840152608083015260a082015260c0810186905260e00160405160208183030381529060405280519060200120905060006110e0826116ff565b905060006110f08287878761172c565b9050896001600160a01b0316816001600160a01b031614611137576040516325c0072360e11b81526001600160a01b0380831660048301528b1660248201526044016108b8565b6111428a8a8a6111c9565b50505050505050505050565b604080518082019091526000808252602082015261116c83836117ad565b9392505050565b61117b6111db565b6001600160a01b0381166111a557604051631e4fbdf760e01b8152600060048201526024016108b8565b6111ae816115fc565b50565b600061116c828461270e565b600061116c8284612735565b6111d683838360016117e3565b505050565b600b546001600160a01b03163314610c905760405163118cdaa760e01b81523360048201526024016108b8565b6001600160a01b0382166112325760405163ec442f0560e01b8152600060048201526024016108b8565b610b0c60008383611304565b6001600160a01b0383811660009081526001602090815260408083209386168352929052205460001981146112a3578181101561129457828183604051637dc7a0d960e11b81526004016108b89392919061269a565b6112a3848484840360006117e3565b50505050565b6001600160a01b0383166112d357604051634b637e8f60e11b8152600060048201526024016108b8565b6001600160a01b0382166112fd5760405163ec442f0560e01b8152600060048201526024016108b8565b6111d68383835b6111d68383836118b8565b6000306001600160a01b037f00000000000000000000000000000000000000000000000000000000000000001614801561136857507f000000000000000000000000000000000000000000000000000000000000000046145b1561139257507f000000000000000000000000000000000000000000000000000000000000000090565b6109ad604080517f8b73c3c69bb8fe3d512ecc4cf759cc79239f7b179b0ffacaa9a75d522b39400f60208201527f0000000000000000000000000000000000000000000000000000000000000000918101919091527f000000000000000000000000000000000000000000000000000000000000000060608201524660808201523060a082015260009060c00160405160208183030381529060405280519060200120905090565b600065ffffffffffff82111561146d576040516306dfcc6560e41b815260306004820152602481018390526044016108b8565b5090565b8154600090818160058111156114d057600061148c8461191f565b61149690856126fb565b60008881526020902090915081015465ffffffffffff90811690871610156114c0578091506114ce565b6114cb8160016126e8565b92505b505b60006114de87878585611a07565b9050801561151957611503876114f56001846126fb565b600091825260209091200190565b54600160301b90046001600160d01b031661151c565b60005b979650505050505050565b6001600160a01b03821661155157604051634b637e8f60e11b8152600060048201526024016108b8565b610b0c82600083611304565b60006109ad4361143a565b6001600160a01b0382811660008181526008602052604080822080548686166001600160a01b0319821681179092559151919094169392849290917f3134e8a2e6d97e929a7e54011ea5485d7d196dd5f0ba4d4ef95803e8e3fc257f9190a46111d681836115d586611a69565b611a87565b6001600160a01b0381166000908152600960205260408120546107b890611bf3565b600b80546001600160a01b038381166001600160a01b0319831681179093556040519116919082907f8be0079c531659141344cd1fd0a4f28419497f9722a3daafe3b4186f6b6457e090600090a35050565b6001600160a01b0381166000908152600760205260408120546107b8565b60606109ad7f00000000000000000000000000000000000000000000000000000000000000006005611c24565b60606109ad7f00000000000000000000000000000000000000000000000000000000000000006006611c24565b805460009080156116f6576116e0836114f56001846126fb565b54600160301b90046001600160d01b031661116c565b60009392505050565b60006107b861170c61130f565b8360405161190160f01b8152600281019290925260228201526042902090565b60008060008061173e88888888611ccf565b92509250925061174e8282611d9e565b50909695505050505050565b6001600160a01b03821660009081526007602052604090208054600181019091558181146111d6576040516301d4b62360e61b81526001600160a01b0384166004820152602481018290526044016108b8565b60408051808201909152600080825260208201526001600160a01b038316600090815260096020526040902061116c9083611e57565b6001600160a01b03841661180d5760405163e602df0560e01b8152600060048201526024016108b8565b6001600160a01b03831661183757604051634a1406b160e11b8152600060048201526024016108b8565b6001600160a01b03808516600090815260016020908152604080832093871683529290522082905580156112a357826001600160a01b0316846001600160a01b03167f8c5be1e5ebec7d5bd14f71427d1e84f3dd0314c0f7b2291e5b200ac8c7c3b925846040516118aa91815260200190565b60405180910390a350505050565b6118c3838383611ec7565b6001600160a01b0383166119145760006118dc60025490565b90506001600160d01b038082111561191157604051630e58ae9360e11b815260048101839052602481018290526044016108b8565b50505b6111d6838383611fde565b60008160000361193157506000919050565b6000600161193e84612054565b901c6001901b9050600181848161195757611957612755565b048201901c9050600181848161196f5761196f612755565b048201901c9050600181848161198757611987612755565b048201901c9050600181848161199f5761199f612755565b048201901c905060018184816119b7576119b7612755565b048201901c905060018184816119cf576119cf612755565b048201901c905060018184816119e7576119e7612755565b048201901c905061116c81828581611a0157611a01612755565b046120e8565b60005b81831015611a61576000611a1e84846120fe565b60008781526020902090915065ffffffffffff86169082015465ffffffffffff161115611a4d57809250611a5b565b611a588160016126e8565b93505b50611a0a565b509392505050565b6001600160a01b0381166000908152602081905260408120546107b8565b816001600160a01b0316836001600160a01b031614158015611aa95750600081115b156111d6576001600160a01b03831615611b51576001600160a01b03831660009081526009602052604081208190611aec906111bd611ae786612119565b61214d565b6001600160d01b031691506001600160d01b03169150846001600160a01b03167fdec2bacdd2f05b59de34da9b523dff8be42e5e38e818c82fdb0bae774387a7248383604051611b46929190918252602082015260400190565b60405180910390a250505b6001600160a01b038216156111d6576001600160a01b03821660009081526009602052604081208190611b8a906111b1611ae786612119565b6001600160d01b031691506001600160d01b03169150836001600160a01b03167fdec2bacdd2f05b59de34da9b523dff8be42e5e38e818c82fdb0bae774387a7248383604051611be4929190918252602082015260400190565b60405180910390a25050505050565b600063ffffffff82111561146d576040516306dfcc6560e41b815260206004820152602481018390526044016108b8565b606060ff8314611c3e57611c3783612186565b90506107b8565b818054611c4a90612660565b80601f0160208091040260200160405190810160405280929190818152602001828054611c7690612660565b8015611cc35780601f10611c9857610100808354040283529160200191611cc3565b820191906000526020600020905b815481529060010190602001808311611ca657829003601f168201915b505050505090506107b8565b600080807f7fffffffffffffffffffffffffffffff5d576e7357a4501ddfe92f46681b20a0841115611d0a5750600091506003905082611d94565b604080516000808252602082018084528a905260ff891692820192909252606081018790526080810186905260019060a0016020604051602081039080840390855afa158015611d5e573d6000803e3d6000fd5b5050604051601f1901519150506001600160a01b038116611d8a57506000925060019150829050611d94565b9250600091508190505b9450945094915050565b6000826003811115611db257611db261276b565b03611dbb575050565b6001826003811115611dcf57611dcf61276b565b03611ded5760405163f645eedf60e01b815260040160405180910390fd5b6002826003811115611e0157611e0161276b565b03611e225760405163fce698f760e01b8152600481018290526024016108b8565b6003826003811115611e3657611e3661276b565b03610b0c576040516335e2f38360e21b8152600481018290526024016108b8565b6040805180820190915260008082526020820152826000018263ffffffff1681548110611e8657611e86612781565b60009182526020918290206040805180820190915291015465ffffffffffff81168252600160301b90046001600160d01b0316918101919091529392505050565b6001600160a01b038316611ef2578060026000828254611ee791906126e8565b90915550611f519050565b6001600160a01b03831660009081526020819052604090205481811015611f325783818360405163391434e360e21b81526004016108b89392919061269a565b6001600160a01b03841660009081526020819052604090209082900390555b6001600160a01b038216611f6d57600280548290039055611f8c565b6001600160a01b03821660009081526020819052604090208054820190555b816001600160a01b0316836001600160a01b03167fddf252ad1be2c89b69c2b068fc378daa952ba7f163c4a11628f55a4df523b3ef83604051611fd191815260200190565b60405180910390a3505050565b6001600160a01b03831661200057611ffd600a6111b1611ae784612119565b50505b6001600160a01b0382166120225761201f600a6111bd611ae784612119565b50505b6001600160a01b038381166000908152600860205260408082205485841683529120546111d692918216911683611a87565b600080608083901c1561206957608092831c92015b604083901c1561207b57604092831c92015b602083901c1561208d57602092831c92015b601083901c1561209f57601092831c92015b600883901c156120b157600892831c92015b600483901c156120c357600492831c92015b600283901c156120d557600292831c92015b600183901c156107b85760010192915050565b60008183106120f7578161116c565b5090919050565b600061210d6002848418612797565b61116c908484166126e8565b60006001600160d01b0382111561146d576040516306dfcc6560e41b815260d06004820152602481018390526044016108b8565b60008061217961215b610e13565b612171612167886116c6565b868863ffffffff16565b8791906121c5565b915091505b935093915050565b60606000612193836121d3565b604080516020808252818301909252919250600091906020820181803683375050509182525060208101929092525090565b6000806121798585856121fb565b600060ff8216601f8111156107b857604051632cd44ac360e21b815260040160405180910390fd5b82546000908190801561231a576000612219876114f56001856126fb565b60408051808201909152905465ffffffffffff808216808452600160301b9092046001600160d01b03166020840152919250908716101561226d57604051632520601d60e01b815260040160405180910390fd5b805165ffffffffffff8088169116036122b95784612290886114f56001866126fb565b80546001600160d01b0392909216600160301b0265ffffffffffff90921691909117905561230a565b6040805180820190915265ffffffffffff80881682526001600160d01b0380881660208085019182528b54600181018d5560008d81529190912094519151909216600160301b029216919091179101555b60200151925083915061217e9050565b50506040805180820190915265ffffffffffff80851682526001600160d01b0380851660208085019182528854600181018a5560008a815291822095519251909316600160301b02919093161792019190915590508161217e565b6000815180845260005b8181101561239b5760208185018101518683018201520161237f565b506000602082860101526020601f19601f83011685010191505092915050565b60208152600061116c6020830184612375565b80356001600160a01b03811681146123e557600080fd5b919050565b600080604083850312156123fd57600080fd5b612406836123ce565b946020939093013593505050565b60006020828403121561242657600080fd5b5035919050565b60008060006060848603121561244257600080fd5b61244b846123ce565b9250612459602085016123ce565b9150604084013590509250925092565b60006020828403121561247b57600080fd5b61116c826123ce565b60ff60f81b881681526000602060e0818401526124a460e084018a612375565b83810360408501526124b6818a612375565b606085018990526001600160a01b038816608086015260a0850187905284810360c0860152855180825283870192509083019060005b81811015612508578351835292840192918401916001016124ec565b50909c9b505050505050505050505050565b803560ff811681146123e557600080fd5b60008060008060008060c0878903121561254457600080fd5b61254d876123ce565b955060208701359450604087013593506125696060880161251a565b92506080870135915060a087013590509295509295509295565b600080600080600080600060e0888a03121561259e57600080fd5b6125a7886123ce565b96506125b5602089016123ce565b955060408801359450606088013593506125d16080890161251a565b925060a0880135915060c0880135905092959891949750929550565b6000806040838503121561260057600080fd5b612609836123ce565b9150612617602084016123ce565b90509250929050565b6000806040838503121561263357600080fd5b61263c836123ce565b9150602083013563ffffffff8116811461265557600080fd5b809150509250929050565b600181811c9082168061267457607f821691505b60208210810361269457634e487b7160e01b600052602260045260246000fd5b50919050565b6001600160a01b039390931683526020830191909152604082015260600190565b634e487b7160e01b600052601160045260246000fd5b80820281158282048414176107b8576107b86126bb565b808201808211156107b8576107b86126bb565b818103818111156107b8576107b86126bb565b6001600160d01b0381811683821601908082111561272e5761272e6126bb565b5092915050565b6001600160d01b0382811682821603908082111561272e5761272e6126bb565b634e487b7160e01b600052601260045260246000fd5b634e487b7160e01b600052602160045260246000fd5b634e487b7160e01b600052603260045260246000fd5b6000826127b457634e487b7160e01b600052601260045260246000fd5b50049056fea26469706673582212207c20fae31271f5baa1b78f4b0ab775bd01ad1157dceeb964a4a8666a790878a964736f6c63430008140033dec2bacdd2f05b59de34da9b523dff8be42e5e38e818c82fdb0bae774387a724",
  "linkReferences": {},
  "deployedLinkReferences": {}
}